{
  "_format": "hh-sol-artifact-1",
  "contractName": "AgentFaucet",
  "sourceName": "contracts/AgentFaucet.sol",
  "abi": [
    {
      "inputs": [
        {
          "internalType": "address",
          "name": "_sETH",
          "type": "address"
        },
        {
          "internalType": "address",
          "name": "_sBTC",
          "type": "address"
        },
        {
          "internalType": "address",
          "name": "_sUSDC",
          "type": "address"
        },
        {
          "internalType": "address",
          "name": "_sPOL",
          "type": "address"
        },
        {
          "internalType": "address",
          "name": "_sSOL",
          "type": "address"
        },
        {
          "internalType": "address",
          "name": "_sprawl",
          "type": "address"
        }
      ],
      "stateMutability": "nonpayable",
      "type": "constructor"
    },
    {
      "inputs": [
        {
          "internalType": "address",
          "name": "agentWallet",
          "type": "address"
        }
      ],
      "name": "fundNewAgent",
      "outputs": [],
      "stateMutability": "nonpayable",
      "type": "function"
    },
    {
      "inputs": [
        {
          "internalType": "address",
          "name": "",
          "type": "address"
        }
      ],
      "name": "funded",
      "outputs": [
        {
          "internalType": "bool",
          "name": "",
          "type": "bool"
        }
      ],
      "stateMutability": "view",
      "type": "function"
    },
    {
      "inputs": [],
      "name": "owner",
      "outputs": [
        {
          "internalType": "address",
          "name": "",
          "type": "address"
        }
      ],
      "stateMutability": "view",
      "type": "function"
    },
    {
      "inputs": [],
      "name": "sBTC",
      "outputs": [
        {
          "internalType": "contract SprawlToken",
          "name": "",
          "type": "address"
        }
      ],
      "stateMutability": "view",
      "type": "function"
    },
    {
      "inputs": [],
      "name": "sETH",
      "outputs": [
        {
          "internalType": "contract SprawlToken",
          "name": "",
          "type": "address"
        }
      ],
      "stateMutability": "view",
      "type": "function"
    },
    {
      "inputs": [],
      "name": "sPOL",
      "outputs": [
        {
          "internalType": "contract SprawlToken",
          "name": "",
          "type": "address"
        }
      ],
      "stateMutability": "view",
      "type": "function"
    },
    {
      "inputs": [],
      "name": "sSOL",
      "outputs": [
        {
          "internalType": "contract SprawlToken",
          "name": "",
          "type": "address"
        }
      ],
      "stateMutability": "view",
      "type": "function"
    },
    {
      "inputs": [],
      "name": "sUSDC",
      "outputs": [
        {
          "internalType": "contract SprawlToken",
          "name": "",
          "type": "address"
        }
      ],
      "stateMutability": "view",
      "type": "function"
    },
    {
      "inputs": [],
      "name": "sprawl",
      "outputs": [
        {
          "internalType": "contract SprawlToken",
          "name": "",
          "type": "address"
        }
      ],
      "stateMutability": "view",
      "type": "function"
    },
    {
      "inputs": [
        {
          "internalType": "address",
          "name": "newOwner",
          "type": "address"
        }
      ],
      "name": "transferOwnership",
      "outputs": [],
      "stateMutability": "nonpayable",
      "type": "function"
    }
  ],
  "bytecode": "0x608060405234801561001057600080fd5b5060405161075838038061075883398101604081905261002f916100c9565b600080546001600160a01b03199081166001600160a01b039889161790915560018054821696881696909617909555600280548616948716949094179093556003805485169286169290921790915560048054841691851691909117905560058054831691909316179091556006805433921691909117905561013d565b80516001600160a01b03811681146100c457600080fd5b919050565b60008060008060008060c087890312156100e257600080fd5b6100eb876100ad565b95506100f9602088016100ad565b9450610107604088016100ad565b9350610115606088016100ad565b9250610123608088016100ad565b915061013160a088016100ad565b90509295509295509295565b61060c8061014c6000396000f3fe608060405234801561001057600080fd5b506004361061009e5760003560e01c80638da5cb5b116100665780638da5cb5b146101415780639b3bb8e214610154578063d534abc314610167578063e043f56f1461017a578063f2fde38b1461018d57600080fd5b80631dcdd5fe146100a357806345f9fc78146100d35780634c53fe65146101065780637c2e889a146101195780638960228c1461012c575b600080fd5b6004546100b6906001600160a01b031681565b6040516001600160a01b0390911681526020015b60405180910390f35b6100f66100e13660046105a6565b60076020526000908152604090205460ff1681565b60405190151581526020016100ca565b6003546100b6906001600160a01b031681565b6002546100b6906001600160a01b031681565b61013f61013a3660046105a6565b6101a0565b005b6006546100b6906001600160a01b031681565b6000546100b6906001600160a01b031681565b6005546100b6906001600160a01b031681565b6001546100b6906001600160a01b031681565b61013f61019b3660046105a6565b6104f9565b6006546001600160a01b031633146101eb5760405162461bcd60e51b81526020600482015260096024820152682737ba1037bbb732b960b91b60448201526064015b60405180910390fd5b6001600160a01b03811660009081526007602052604090205460ff16156102455760405162461bcd60e51b815260206004820152600e60248201526d105b1c9958591e48199d5b99195960921b60448201526064016101e2565b6001600160a01b0381811660008181526007602052604090819020805460ff1916600117905560025490516340c10f1960e01b8152600481019290925269010f0cf064dd592000006024830152909116906340c10f1990604401600060405180830381600087803b1580156102b957600080fd5b505af11580156102cd573d6000803e3d6000fd5b50506000546040516340c10f1960e01b81526001600160a01b038581166004830152670de0b6b3a7640000602483015290911692506340c10f199150604401600060405180830381600087803b15801561032657600080fd5b505af115801561033a573d6000803e3d6000fd5b50506001546040516340c10f1960e01b81526001600160a01b038581166004830152667c585087238000602483015290911692506340c10f199150604401600060405180830381600087803b15801561039257600080fd5b505af11580156103a6573d6000803e3d6000fd5b50506003546040516340c10f1960e01b81526001600160a01b03858116600483015269010f0cf064dd59200000602483015290911692506340c10f199150604401600060405180830381600087803b15801561040157600080fd5b505af1158015610415573d6000803e3d6000fd5b5050600480546040516340c10f1960e01b81526001600160a01b038681169382019390935267d02ab486cedc00006024820152911692506340c10f199150604401600060405180830381600087803b15801561047057600080fd5b505af1158015610484573d6000803e3d6000fd5b50506005546040516340c10f1960e01b81526001600160a01b03858116600483015268056bc75e2d63100000602483015290911692506340c10f199150604401600060405180830381600087803b1580156104de57600080fd5b505af11580156104f2573d6000803e3d6000fd5b5050505050565b6006546001600160a01b0316331461053f5760405162461bcd60e51b81526020600482015260096024820152682737ba1037bbb732b960b91b60448201526064016101e2565b6001600160a01b0381166105845760405162461bcd60e51b815260206004820152600c60248201526b5a65726f206164647265737360a01b60448201526064016101e2565b600680546001600160a01b0319166001600160a01b0392909216919091179055565b6000602082840312156105b857600080fd5b81356001600160a01b03811681146105cf57600080fd5b939250505056fea2646970667358221220b1051ba27a1bcc2aee35e72a50190dd1ce168601e19191a9721f0927af9178a664736f6c63430008140033",
  "linkReferences": {},
  "deployedLinkReferences": {}
}