{
  "_format": "hh-sol-artifact-1",
  "contractName": "AgentFaucet",
  "sourceName": "contracts/AgentFaucet.sol",
  "abi": [
    {
      "inputs": [
        {
          "internalType": "address",
          "name": "_sETH",
          "type": "address"
        },
        {
          "internalType": "address",
          "name": "_sBTC",
          "type": "address"
        },
        {
          "internalType": "address",
          "name": "_sUSDC",
          "type": "address"
        },
        {
          "internalType": "address",
          "name": "_sPOL",
          "type": "address"
        },
        {
          "internalType": "address",
          "name": "_sSOL",
          "type": "address"
        },
        {
          "internalType": "address",
          "name": "_sprawl",
          "type": "address"
        }
      ],
      "stateMutability": "nonpayable",
      "type": "constructor"
    },
    {
      "inputs": [
        {
          "internalType": "address",
          "name": "agentWallet",
          "type": "address"
        }
      ],
      "name": "fundNewAgent",
      "outputs": [],
      "stateMutability": "nonpayable",
      "type": "function"
    },
    {
      "inputs": [
        {
          "internalType": "address",
          "name": "",
          "type": "address"
        }
      ],
      "name": "funded",
      "outputs": [
        {
          "internalType": "bool",
          "name": "",
          "type": "bool"
        }
      ],
      "stateMutability": "view",
      "type": "function"
    },
    {
      "inputs": [],
      "name": "owner",
      "outputs": [
        {
          "internalType": "address",
          "name": "",
          "type": "address"
        }
      ],
      "stateMutability": "view",
      "type": "function"
    },
    {
      "inputs": [],
      "name": "sBTC",
      "outputs": [
        {
          "internalType": "contract SprawlToken",
          "name": "",
          "type": "address"
        }
      ],
      "stateMutability": "view",
      "type": "function"
    },
    {
      "inputs": [],
      "name": "sETH",
      "outputs": [
        {
          "internalType": "contract SprawlToken",
          "name": "",
          "type": "address"
        }
      ],
      "stateMutability": "view",
      "type": "function"
    },
    {
      "inputs": [],
      "name": "sPOL",
      "outputs": [
        {
          "internalType": "contract SprawlToken",
          "name": "",
          "type": "address"
        }
      ],
      "stateMutability": "view",
      "type": "function"
    },
    {
      "inputs": [],
      "name": "sSOL",
      "outputs": [
        {
          "internalType": "contract SprawlToken",
          "name": "",
          "type": "address"
        }
      ],
      "stateMutability": "view",
      "type": "function"
    },
    {
      "inputs": [],
      "name": "sUSDC",
      "outputs": [
        {
          "internalType": "contract SprawlToken",
          "name": "",
          "type": "address"
        }
      ],
      "stateMutability": "view",
      "type": "function"
    },
    {
      "inputs": [],
      "name": "sprawl",
      "outputs": [
        {
          "internalType": "contract SprawlToken",
          "name": "",
          "type": "address"
        }
      ],
      "stateMutability": "view",
      "type": "function"
    }
  ],
  "bytecode": "0x608060405234801561001057600080fd5b5060405161068d38038061068d83398101604081905261002f916100c9565b600080546001600160a01b03199081166001600160a01b039889161790915560018054821696881696909617909555600280548616948716949094179093556003805485169286169290921790915560048054841691851691909117905560058054831691909316179091556006805433921691909117905561013d565b80516001600160a01b03811681146100c457600080fd5b919050565b60008060008060008060c087890312156100e257600080fd5b6100eb876100ad565b95506100f9602088016100ad565b9450610107604088016100ad565b9350610115606088016100ad565b9250610123608088016100ad565b915061013160a088016100ad565b90509295509295509295565b6105418061014c6000396000f3fe608060405234801561001057600080fd5b50600436106100935760003560e01c80638960228c116100665780638960228c146101215780638da5cb5b146101365780639b3bb8e214610149578063d534abc31461015c578063e043f56f1461016f57600080fd5b80631dcdd5fe1461009857806345f9fc78146100c85780634c53fe65146100fb5780637c2e889a1461010e575b600080fd5b6004546100ab906001600160a01b031681565b6040516001600160a01b0390911681526020015b60405180910390f35b6100eb6100d63660046104db565b60076020526000908152604090205460ff1681565b60405190151581526020016100bf565b6003546100ab906001600160a01b031681565b6002546100ab906001600160a01b031681565b61013461012f3660046104db565b610182565b005b6006546100ab906001600160a01b031681565b6000546100ab906001600160a01b031681565b6005546100ab906001600160a01b031681565b6001546100ab906001600160a01b031681565b6006546001600160a01b031633146101cd5760405162461bcd60e51b81526020600482015260096024820152682737ba1037bbb732b960b91b60448201526064015b60405180910390fd5b6001600160a01b03811660009081526007602052604090205460ff16156102275760405162461bcd60e51b815260206004820152600e60248201526d105b1c9958591e48199d5b99195960921b60448201526064016101c4565b6001600160a01b0381811660008181526007602052604090819020805460ff1916600117905560025490516340c10f1960e01b8152600481019290925269010f0cf064dd592000006024830152909116906340c10f1990604401600060405180830381600087803b15801561029b57600080fd5b505af11580156102af573d6000803e3d6000fd5b50506000546040516340c10f1960e01b81526001600160a01b038581166004830152670de0b6b3a7640000602483015290911692506340c10f199150604401600060405180830381600087803b15801561030857600080fd5b505af115801561031c573d6000803e3d6000fd5b50506001546040516340c10f1960e01b81526001600160a01b038581166004830152667c585087238000602483015290911692506340c10f199150604401600060405180830381600087803b15801561037457600080fd5b505af1158015610388573d6000803e3d6000fd5b50506003546040516340c10f1960e01b81526001600160a01b03858116600483015269010f0cf064dd59200000602483015290911692506340c10f199150604401600060405180830381600087803b1580156103e357600080fd5b505af11580156103f7573d6000803e3d6000fd5b5050600480546040516340c10f1960e01b81526001600160a01b038681169382019390935267d02ab486cedc00006024820152911692506340c10f199150604401600060405180830381600087803b15801561045257600080fd5b505af1158015610466573d6000803e3d6000fd5b50506005546040516340c10f1960e01b81526001600160a01b03858116600483015268056bc75e2d63100000602483015290911692506340c10f199150604401600060405180830381600087803b1580156104c057600080fd5b505af11580156104d4573d6000803e3d6000fd5b5050505050565b6000602082840312156104ed57600080fd5b81356001600160a01b038116811461050457600080fd5b939250505056fea2646970667358221220b995f9c28329ec2322b1f3770317ca3221442b9004ba550f6d1d2ba012fb1eea64736f6c63430008140033",
  "linkReferences": {},
  "deployedLinkReferences": {}
}