{
  "_format": "hh-sol-artifact-1",
  "contractName": "BillboardContract",
  "sourceName": "contracts/BillboardContract.sol",
  "abi": [
    {
      "inputs": [
        {
          "internalType": "address",
          "name": "_sprawlToken",
          "type": "address"
        }
      ],
      "stateMutability": "nonpayable",
      "type": "constructor"
    },
    {
      "anonymous": false,
      "inputs": [
        {
          "indexed": true,
          "internalType": "uint256",
          "name": "id",
          "type": "uint256"
        },
        {
          "indexed": true,
          "internalType": "address",
          "name": "advertiser",
          "type": "address"
        },
        {
          "indexed": false,
          "internalType": "string",
          "name": "vehicleType",
          "type": "string"
        },
        {
          "indexed": false,
          "internalType": "string",
          "name": "contentURI",
          "type": "string"
        },
        {
          "indexed": false,
          "internalType": "uint256",
          "name": "sprawlPaid",
          "type": "uint256"
        },
        {
          "indexed": false,
          "internalType": "uint256",
          "name": "expiresAt",
          "type": "uint256"
        }
      ],
      "name": "BillboardPurchased",
      "type": "event"
    },
    {
      "inputs": [],
      "name": "BURN_ADDRESS",
      "outputs": [
        {
          "internalType": "address",
          "name": "",
          "type": "address"
        }
      ],
      "stateMutability": "view",
      "type": "function"
    },
    {
      "inputs": [
        {
          "internalType": "uint256",
          "name": "",
          "type": "uint256"
        }
      ],
      "name": "billboards",
      "outputs": [
        {
          "internalType": "address",
          "name": "advertiser",
          "type": "address"
        },
        {
          "internalType": "string",
          "name": "contentURI",
          "type": "string"
        },
        {
          "internalType": "string",
          "name": "vehicleType",
          "type": "string"
        },
        {
          "internalType": "uint256",
          "name": "sprawlPaid",
          "type": "uint256"
        },
        {
          "internalType": "uint256",
          "name": "expiresAt",
          "type": "uint256"
        }
      ],
      "stateMutability": "view",
      "type": "function"
    },
    {
      "inputs": [
        {
          "internalType": "string",
          "name": "",
          "type": "string"
        }
      ],
      "name": "costPerDay",
      "outputs": [
        {
          "internalType": "uint256",
          "name": "",
          "type": "uint256"
        }
      ],
      "stateMutability": "view",
      "type": "function"
    },
    {
      "inputs": [
        {
          "internalType": "uint256",
          "name": "id",
          "type": "uint256"
        }
      ],
      "name": "isActive",
      "outputs": [
        {
          "internalType": "bool",
          "name": "",
          "type": "bool"
        }
      ],
      "stateMutability": "view",
      "type": "function"
    },
    {
      "inputs": [],
      "name": "nextBillboardId",
      "outputs": [
        {
          "internalType": "uint256",
          "name": "",
          "type": "uint256"
        }
      ],
      "stateMutability": "view",
      "type": "function"
    },
    {
      "inputs": [
        {
          "internalType": "string",
          "name": "contentURI",
          "type": "string"
        },
        {
          "internalType": "string",
          "name": "vehicleType",
          "type": "string"
        },
        {
          "internalType": "uint256",
          "name": "durationDays",
          "type": "uint256"
        }
      ],
      "name": "purchaseBillboard",
      "outputs": [],
      "stateMutability": "nonpayable",
      "type": "function"
    },
    {
      "inputs": [],
      "name": "sprawlToken",
      "outputs": [
        {
          "internalType": "contract IERC20",
          "name": "",
          "type": "address"
        }
      ],
      "stateMutability": "view",
      "type": "function"
    }
  ],
  "bytecode": "0x608060405234801561001057600080fd5b50604051610bc4380380610bc483398101604081905261002f91610147565b600080546001600160a01b0319166001600160a01b03831617905560405164706c616e6560d81b81526802b5e3af16b18800009060039060050190815260405190819003602001812091909155640626c696d760dc1b815268022b1c8c1227a00000906003906005019081526040519081900360200181209190915568189a5b1b189bd85c9960ba1b81526801158e460913d0000090600390600901908152604051908190036020018120919091556b3937b7b33a37b82fb9b4b3b760a11b815267d02ab486cedc000090600390600c01908152604051908190036020018120919091556706c65645f777261760c41b8152678ac7230489e80000906003906008019081526040519081900360200190205550610177565b60006020828403121561015957600080fd5b81516001600160a01b038116811461017057600080fd5b9392505050565b610a3e806101866000396000f3fe608060405234801561001057600080fd5b506004361061007d5760003560e01c8063924492151161005b578063924492151461010f578063acb571f314610126578063ad54c1d51461013b578063fccc28131461016657600080fd5b80632128e0ac146100825780635709a549146100af57806382afd23b146100da575b600080fd5b610095610090366004610593565b61016f565b6040516100a69594939291906105f2565b60405180910390f35b6000546100c2906001600160a01b031681565b6040516001600160a01b0390911681526020016100a6565b6100ff6100e8366004610593565b600090815260016020526040902060040154421090565b60405190151581526020016100a6565b61011860025481565b6040519081526020016100a6565b610139610134366004610686565b6102b9565b005b610118610149366004610710565b805160208183018101805160038252928201919093012091525481565b6100c261dead81565b6001602081905260009182526040909120805491810180546001600160a01b039093169261019c906107c1565b80601f01602080910402602001604051908101604052809291908181526020018280546101c8906107c1565b80156102155780601f106101ea57610100808354040283529160200191610215565b820191906000526020600020905b8154815290600101906020018083116101f857829003601f168201915b50505050509080600201805461022a906107c1565b80601f0160208091040260200160405190810160405280929190818152602001828054610256906107c1565b80156102a35780601f10610278576101008083540402835291602001916102a3565b820191906000526020600020905b81548152906001019060200180831161028657829003601f168201915b5050505050908060030154908060040154905085565b6000811180156102ca5750601e8111155b6103075760405162461bcd60e51b8152602060048201526009602482015268312d3330206461797360b81b60448201526064015b60405180910390fd5b60006003848460405161031b9291906107fb565b9081526020016040518091039020549050600081116103735760405162461bcd60e51b8152602060048201526014602482015273496e76616c69642076656869636c65207479706560601b60448201526064016102fe565b600061037f8383610821565b6000546040516323b872dd60e01b815233600482015261dead6024820152604481018390529192506001600160a01b0316906323b872dd906064016020604051808303816000875af11580156103d9573d6000803e3d6000fd5b505050506040513d601f19601f820116820180604052508101906103fd919061083e565b50600280546000918261040f83610867565b9190505590506040518060a00160405280336001600160a01b0316815260200189898080601f016020809104026020016040519081016040528093929190818152602001838380828437600092019190915250505090825250604080516020601f8a0181900481028201810190925288815291810191908990899081908401838280828437600092019190915250505090825250602081018490526040016104ba8662015180610821565b6104c49042610880565b90526000828152600160208181526040909220835181546001600160a01b0319166001600160a01b03909116178155918301519082019061050590826108e2565b506040820151600282019061051a90826108e2565b506060820151600382015560809091015160049182015560008281526001602052604090819020909101549051339183917f9ef1e2dd604622bea0257fe06c433505714eff637c0822279a7743b53a07072091610581918b918b918f918f918b91906109cb565b60405180910390a35050505050505050565b6000602082840312156105a557600080fd5b5035919050565b6000815180845260005b818110156105d2576020818501810151868301820152016105b6565b506000602082860101526020601f19601f83011685010191505092915050565b6001600160a01b038616815260a060208201819052600090610616908301876105ac565b828103604084015261062881876105ac565b60608401959095525050608001529392505050565b60008083601f84011261064f57600080fd5b50813567ffffffffffffffff81111561066757600080fd5b60208301915083602082850101111561067f57600080fd5b9250929050565b60008060008060006060868803121561069e57600080fd5b853567ffffffffffffffff808211156106b657600080fd5b6106c289838a0161063d565b909750955060208801359150808211156106db57600080fd5b506106e88882890161063d565b96999598509660400135949350505050565b634e487b7160e01b600052604160045260246000fd5b60006020828403121561072257600080fd5b813567ffffffffffffffff8082111561073a57600080fd5b818401915084601f83011261074e57600080fd5b813581811115610760576107606106fa565b604051601f8201601f19908116603f01168101908382118183101715610788576107886106fa565b816040528281528760208487010111156107a157600080fd5b826020860160208301376000928101602001929092525095945050505050565b600181811c908216806107d557607f821691505b6020821081036107f557634e487b7160e01b600052602260045260246000fd5b50919050565b8183823760009101908152919050565b634e487b7160e01b600052601160045260246000fd5b80820281158282048414176108385761083861080b565b92915050565b60006020828403121561085057600080fd5b8151801515811461086057600080fd5b9392505050565b6000600182016108795761087961080b565b5060010190565b808201808211156108385761083861080b565b601f8211156108dd57600081815260208120601f850160051c810160208610156108ba5750805b601f850160051c820191505b818110156108d9578281556001016108c6565b5050505b505050565b815167ffffffffffffffff8111156108fc576108fc6106fa565b6109108161090a84546107c1565b84610893565b602080601f831160018114610945576000841561092d5750858301515b600019600386901b1c1916600185901b1785556108d9565b600085815260208120601f198616915b8281101561097457888601518255948401946001909101908401610955565b50858210156109925787850151600019600388901b60f8161c191681555b5050505050600190811b01905550565b81835281816020850137506000828201602090810191909152601f909101601f19169091010190565b6080815260006109df60808301888a6109a2565b82810360208401526109f28187896109a2565b604084019590955250506060015294935050505056fea264697066735822122048df6d81f28d56e174216e8199ff8a684c4479d79681d350cc9f02be1bb77cd564736f6c63430008140033",
  "linkReferences": {},
  "deployedLinkReferences": {}
}