{
  "_format": "hh-sol-artifact-1",
  "contractName": "CityReferee",
  "sourceName": "contracts/CityReferee.sol",
  "abi": [
    {
      "inputs": [
        {
          "internalType": "address",
          "name": "_cityState",
          "type": "address"
        },
        {
          "internalType": "address",
          "name": "_sprawlToken",
          "type": "address"
        },
        {
          "internalType": "address",
          "name": "_reputationRegistry",
          "type": "address"
        }
      ],
      "stateMutability": "nonpayable",
      "type": "constructor"
    },
    {
      "inputs": [],
      "name": "cityState",
      "outputs": [
        {
          "internalType": "contract ICityState",
          "name": "",
          "type": "address"
        }
      ],
      "stateMutability": "view",
      "type": "function"
    },
    {
      "inputs": [],
      "name": "owner",
      "outputs": [
        {
          "internalType": "address",
          "name": "",
          "type": "address"
        }
      ],
      "stateMutability": "view",
      "type": "function"
    },
    {
      "inputs": [
        {
          "internalType": "uint256",
          "name": "agentId",
          "type": "uint256"
        },
        {
          "internalType": "int256",
          "name": "pnl",
          "type": "int256"
        },
        {
          "internalType": "uint256",
          "name": "newVolume",
          "type": "uint256"
        },
        {
          "internalType": "string",
          "name": "tag",
          "type": "string"
        }
      ],
      "name": "recordOutcome",
      "outputs": [],
      "stateMutability": "nonpayable",
      "type": "function"
    },
    {
      "inputs": [],
      "name": "reputationRegistry",
      "outputs": [
        {
          "internalType": "contract IReputationRegistry",
          "name": "",
          "type": "address"
        }
      ],
      "stateMutability": "view",
      "type": "function"
    },
    {
      "inputs": [
        {
          "internalType": "uint256",
          "name": "agentId",
          "type": "uint256"
        },
        {
          "internalType": "int256",
          "name": "dailyPnl",
          "type": "int256"
        },
        {
          "internalType": "uint256",
          "name": "sprawlReward",
          "type": "uint256"
        }
      ],
      "name": "settleDaily",
      "outputs": [],
      "stateMutability": "nonpayable",
      "type": "function"
    },
    {
      "inputs": [],
      "name": "sprawlToken",
      "outputs": [
        {
          "internalType": "contract SprawlToken",
          "name": "",
          "type": "address"
        }
      ],
      "stateMutability": "view",
      "type": "function"
    }
  ],
  "bytecode": "0x608060405234801561001057600080fd5b5060405161076b38038061076b83398101604081905261002f91610098565b600080546001600160a01b03199081163317909155600180546001600160a01b039586169083161790556002805493851693821693909317909255600380549190931691161790556100db565b80516001600160a01b038116811461009357600080fd5b919050565b6000806000606084860312156100ad57600080fd5b6100b68461007c565b92506100c46020850161007c565b91506100d26040850161007c565b90509250925092565b610681806100ea6000396000f3fe608060405234801561001057600080fd5b50600436106100625760003560e01c806344590cab146100675780634b66c43d146100965780635709a549146100ab5780637f9d2c63146100be5780638da5cb5b146100d1578063c8db44e3146100e4575b600080fd5b60015461007a906001600160a01b031681565b6040516001600160a01b03909116815260200160405180910390f35b6100a96100a4366004610406565b6100f7565b005b60025461007a906001600160a01b031681565b6100a96100cc366004610432565b610281565b60005461007a906001600160a01b031681565b60035461007a906001600160a01b031681565b6000546001600160a01b031633146101425760405162461bcd60e51b81526020600482015260096024820152682737ba1037bbb732b960b91b60448201526064015b60405180910390fd5b600154604051630a270ad960e31b81526004810185905260009182916001600160a01b039091169063513856c89060240161010060405180830381865afa158015610191573d6000803e3d6000fd5b505050506040513d601f19601f820116820180604052508101906101b591906104bf565b97505050505050509150806101fe5760405162461bcd60e51b815260206004820152600f60248201526e1059d95b9d081b9bdd08199bdd5b99608a1b6044820152606401610139565b60008413801561020e5750600083115b1561027a576002546040516340c10f1960e01b81526001600160a01b03848116600483015260248201869052909116906340c10f1990604401600060405180830381600087803b15801561026157600080fd5b505af1158015610275573d6000803e3d6000fd5b505050505b5050505050565b6000546001600160a01b031633146102c75760405162461bcd60e51b81526020600482015260096024820152682737ba1037bbb732b960b91b6044820152606401610139565b6001546040516359504f9b60e01b81526004810187905260248101869052604481018590526001600160a01b03909116906359504f9b90606401600060405180830381600087803b15801561031b57600080fd5b505af115801561032f573d6000803e3d6000fd5b50505050600061033e856103b5565b600354604051630312141160e61b81529192506001600160a01b03169063c48504409061037b908990859060029089908990600090600401610555565b600060405180830381600087803b15801561039557600080fd5b505af11580156103a9573d6000803e3d6000fd5b50505050505050505050565b600069021e19e0c9bab24000008213156103d157506064919050565b69021e19e0c9bab23fffff198212156103ed5750606319919050565b61040068056bc75e2d6310000083610601565b92915050565b60008060006060848603121561041b57600080fd5b505081359360208301359350604090920135919050565b60008060008060006080868803121561044a57600080fd5b853594506020860135935060408601359250606086013567ffffffffffffffff8082111561047757600080fd5b818801915088601f83011261048b57600080fd5b81358181111561049a57600080fd5b8960208285010111156104ac57600080fd5b9699959850939650602001949392505050565b600080600080600080600080610100898b0312156104dc57600080fd5b88516001600160a01b03811681146104f357600080fd5b809850506020890151965060408901519550606089015194506080890151935060a0890151925060c089015160ff8116811461052e57600080fd5b60e08a0151909250801515811461054457600080fd5b809150509295985092959890939650565b600061012088835287600f0b602084015260ff871660408401528060608401528481840152506101408486828501376000838601820152601f8501601f19168301838103820160808501526105b08183016000815260200190565b84810360a0860152600081529150506020810183810360c08501526000815290506020810190508360e08401528281036101008401526105f4816000815260200190565b9998505050505050505050565b60008261061e57634e487b7160e01b600052601260045260246000fd5b600160ff1b82146000198414161561064657634e487b7160e01b600052601160045260246000fd5b50059056fea26469706673582212204dfd3e534cf1878e1d17fd18dfc820c4cfc6dd681986c412e85f8da53bb6ff2364736f6c63430008140033",
  "linkReferences": {},
  "deployedLinkReferences": {}
}