{
  "_format": "hh-sol-artifact-1",
  "contractName": "CityReferee",
  "sourceName": "contracts/CityReferee.sol",
  "abi": [
    {
      "inputs": [
        {
          "internalType": "address",
          "name": "_cityState",
          "type": "address"
        },
        {
          "internalType": "address",
          "name": "_sprawlToken",
          "type": "address"
        },
        {
          "internalType": "address",
          "name": "_reputationRegistry",
          "type": "address"
        }
      ],
      "stateMutability": "nonpayable",
      "type": "constructor"
    },
    {
      "anonymous": false,
      "inputs": [
        {
          "indexed": true,
          "internalType": "uint256",
          "name": "agentId",
          "type": "uint256"
        },
        {
          "indexed": false,
          "internalType": "int256",
          "name": "dailyPnl",
          "type": "int256"
        },
        {
          "indexed": false,
          "internalType": "uint256",
          "name": "sprawlMinted",
          "type": "uint256"
        }
      ],
      "name": "DailySettled",
      "type": "event"
    },
    {
      "anonymous": false,
      "inputs": [
        {
          "indexed": true,
          "internalType": "uint256",
          "name": "agentId",
          "type": "uint256"
        },
        {
          "indexed": false,
          "internalType": "int256",
          "name": "pnl",
          "type": "int256"
        },
        {
          "indexed": false,
          "internalType": "uint256",
          "name": "newVolume",
          "type": "uint256"
        }
      ],
      "name": "OutcomeRecorded",
      "type": "event"
    },
    {
      "inputs": [],
      "name": "cityState",
      "outputs": [
        {
          "internalType": "contract ICityState",
          "name": "",
          "type": "address"
        }
      ],
      "stateMutability": "view",
      "type": "function"
    },
    {
      "inputs": [],
      "name": "owner",
      "outputs": [
        {
          "internalType": "address",
          "name": "",
          "type": "address"
        }
      ],
      "stateMutability": "view",
      "type": "function"
    },
    {
      "inputs": [
        {
          "internalType": "uint256",
          "name": "agentId",
          "type": "uint256"
        },
        {
          "internalType": "int256",
          "name": "pnl",
          "type": "int256"
        },
        {
          "internalType": "uint256",
          "name": "newVolume",
          "type": "uint256"
        },
        {
          "internalType": "string",
          "name": "tag",
          "type": "string"
        }
      ],
      "name": "recordOutcome",
      "outputs": [],
      "stateMutability": "nonpayable",
      "type": "function"
    },
    {
      "inputs": [],
      "name": "reputationRegistry",
      "outputs": [
        {
          "internalType": "contract IReputationRegistry",
          "name": "",
          "type": "address"
        }
      ],
      "stateMutability": "view",
      "type": "function"
    },
    {
      "inputs": [
        {
          "internalType": "uint256",
          "name": "agentId",
          "type": "uint256"
        },
        {
          "internalType": "int256",
          "name": "dailyPnl",
          "type": "int256"
        },
        {
          "internalType": "uint256",
          "name": "sprawlReward",
          "type": "uint256"
        }
      ],
      "name": "settleDaily",
      "outputs": [],
      "stateMutability": "nonpayable",
      "type": "function"
    },
    {
      "inputs": [],
      "name": "sprawlToken",
      "outputs": [
        {
          "internalType": "contract SprawlToken",
          "name": "",
          "type": "address"
        }
      ],
      "stateMutability": "view",
      "type": "function"
    }
  ],
  "bytecode": "0x608060405234801561001057600080fd5b506040516108cd3803806108cd83398101604081905261002f91610098565b600080546001600160a01b03199081163317909155600180546001600160a01b039586169083161790556002805493851693821693909317909255600380549190931691161790556100db565b80516001600160a01b038116811461009357600080fd5b919050565b6000806000606084860312156100ad57600080fd5b6100b68461007c565b92506100c46020850161007c565b91506100d26040850161007c565b90509250925092565b6107e3806100ea6000396000f3fe608060405234801561001057600080fd5b50600436106100625760003560e01c806344590cab146100675780634b66c43d146100965780635709a549146100ab5780637f9d2c63146100be5780638da5cb5b146100d1578063c8db44e3146100e4575b600080fd5b60015461007a906001600160a01b031681565b6040516001600160a01b03909116815260200160405180910390f35b6100a96100a4366004610568565b6100f7565b005b60025461007a906001600160a01b031681565b6100a96100cc366004610594565b6103a8565b60005461007a906001600160a01b031681565b60035461007a906001600160a01b031681565b6000546001600160a01b031633146101425760405162461bcd60e51b81526020600482015260096024820152682737ba1037bbb732b960b91b60448201526064015b60405180910390fd5b600154604051630a270ad960e31b81526004810185905260009182916001600160a01b039091169063513856c89060240161010060405180830381865afa158015610191573d6000803e3d6000fd5b505050506040513d601f19601f820116820180604052508101906101b59190610621565b97505050505050925050806101fe5760405162461bcd60e51b815260206004820152600f60248201526e1059d95b9d081b9bdd08199bdd5b99608a1b6044820152606401610139565b6001546040516359504f9b60e01b81526004810187905260248101869052604481018490526001600160a01b03909116906359504f9b90606401600060405180830381600087803b15801561025257600080fd5b505af1158015610266573d6000803e3d6000fd5b5050505060008413801561027a5750600083115b1561036657600154604051630a270ad960e31b8152600481018790526000916001600160a01b03169063513856c89060240161010060405180830381865afa1580156102ca573d6000803e3d6000fd5b505050506040513d601f19601f820116820180604052508101906102ee9190610621565b50506002546040516340c10f1960e01b81526001600160a01b038089166004830152602482018d90529798509616956340c10f199550604401935061033292505050565b600060405180830381600087803b15801561034c57600080fd5b505af1158015610360573d6000803e3d6000fd5b50505050505b604080518581526020810185905286917fff6b3ae3b89dd727afd0fda7b36e87658d160fa4aedbd775b2c4f0fe46afc5db910160405180910390a25050505050565b6000546001600160a01b031633146103ee5760405162461bcd60e51b81526020600482015260096024820152682737ba1037bbb732b960b91b6044820152606401610139565b6001546040516359504f9b60e01b81526004810187905260248101869052604481018590526001600160a01b03909116906359504f9b90606401600060405180830381600087803b15801561044257600080fd5b505af1158015610456573d6000803e3d6000fd5b50505050600061046585610517565b600354604051630312141160e61b81529192506001600160a01b03169063c4850440906104a29089908590600290899089906000906004016106b7565b600060405180830381600087803b1580156104bc57600080fd5b505af11580156104d0573d6000803e3d6000fd5b505060408051888152602081018890528993507f5ada8ff679d08bfc387c5f6bf76bb05e5d8d1075cc87f65854d4de74ca8b1d2d92500160405180910390a2505050505050565b600069021e19e0c9bab240000082131561053357506064919050565b69021e19e0c9bab23fffff1982121561054f5750606319919050565b61056268056bc75e2d6310000083610763565b92915050565b60008060006060848603121561057d57600080fd5b505081359360208301359350604090920135919050565b6000806000806000608086880312156105ac57600080fd5b853594506020860135935060408601359250606086013567ffffffffffffffff808211156105d957600080fd5b818801915088601f8301126105ed57600080fd5b8135818111156105fc57600080fd5b89602082850101111561060e57600080fd5b9699959850939650602001949392505050565b600080600080600080600080610100898b03121561063e57600080fd5b88516001600160a01b038116811461065557600080fd5b809850506020890151965060408901519550606089015194506080890151935060a0890151925060c089015160ff8116811461069057600080fd5b60e08a015190925080151581146106a657600080fd5b809150509295985092959890939650565b600061012088835287600f0b602084015260ff871660408401528060608401528481840152506101408486828501376000838601820152601f8501601f19168301838103820160808501526107128183016000815260200190565b84810360a0860152600081529150506020810183810360c08501526000815290506020810190508360e0840152828103610100840152610756816000815260200190565b9998505050505050505050565b60008261078057634e487b7160e01b600052601260045260246000fd5b600160ff1b8214600019841416156107a857634e487b7160e01b600052601160045260246000fd5b50059056fea264697066735822122085474f03c56705cff10a61b729b1d1eb0e50d6172e7c2e46a3d0e3dbfe61672b64736f6c63430008140033",
  "linkReferences": {},
  "deployedLinkReferences": {}
}