{
  "_format": "hh-sol-artifact-1",
  "contractName": "CityState",
  "sourceName": "contracts/CityState.sol",
  "abi": [
    {
      "inputs": [],
      "stateMutability": "nonpayable",
      "type": "constructor"
    },
    {
      "anonymous": false,
      "inputs": [
        {
          "indexed": true,
          "internalType": "uint256",
          "name": "agentId",
          "type": "uint256"
        },
        {
          "indexed": false,
          "internalType": "string",
          "name": "action",
          "type": "string"
        },
        {
          "indexed": false,
          "internalType": "string",
          "name": "protocol",
          "type": "string"
        },
        {
          "indexed": false,
          "internalType": "bytes",
          "name": "params",
          "type": "bytes"
        },
        {
          "indexed": false,
          "internalType": "uint256",
          "name": "ts",
          "type": "uint256"
        }
      ],
      "name": "AgentDecision",
      "type": "event"
    },
    {
      "anonymous": false,
      "inputs": [
        {
          "indexed": true,
          "internalType": "uint256",
          "name": "agentId",
          "type": "uint256"
        },
        {
          "indexed": false,
          "internalType": "int256",
          "name": "pnlDelta",
          "type": "int256"
        },
        {
          "indexed": false,
          "internalType": "uint256",
          "name": "newVolume",
          "type": "uint256"
        },
        {
          "indexed": false,
          "internalType": "uint256",
          "name": "newLevel",
          "type": "uint256"
        }
      ],
      "name": "AgentOutcome",
      "type": "event"
    },
    {
      "anonymous": false,
      "inputs": [
        {
          "indexed": true,
          "internalType": "uint256",
          "name": "agentId",
          "type": "uint256"
        },
        {
          "indexed": true,
          "internalType": "address",
          "name": "wallet",
          "type": "address"
        },
        {
          "indexed": false,
          "internalType": "uint8",
          "name": "strategyType",
          "type": "uint8"
        }
      ],
      "name": "AgentSpawned",
      "type": "event"
    },
    {
      "anonymous": false,
      "inputs": [
        {
          "indexed": true,
          "internalType": "uint256",
          "name": "agentId",
          "type": "uint256"
        },
        {
          "indexed": false,
          "internalType": "uint256",
          "name": "newLevel",
          "type": "uint256"
        }
      ],
      "name": "BuildingGrew",
      "type": "event"
    },
    {
      "anonymous": false,
      "inputs": [
        {
          "indexed": true,
          "internalType": "uint256",
          "name": "attackerId",
          "type": "uint256"
        },
        {
          "indexed": true,
          "internalType": "uint256",
          "name": "defenderId",
          "type": "uint256"
        },
        {
          "indexed": false,
          "internalType": "bool",
          "name": "attackerWon",
          "type": "bool"
        }
      ],
      "name": "RaidRecorded",
      "type": "event"
    },
    {
      "inputs": [],
      "name": "agentCount",
      "outputs": [
        {
          "internalType": "uint256",
          "name": "",
          "type": "uint256"
        }
      ],
      "stateMutability": "view",
      "type": "function"
    },
    {
      "inputs": [
        {
          "internalType": "uint256",
          "name": "",
          "type": "uint256"
        }
      ],
      "name": "agents",
      "outputs": [
        {
          "internalType": "address",
          "name": "wallet",
          "type": "address"
        },
        {
          "internalType": "uint256",
          "name": "totalVolume",
          "type": "uint256"
        },
        {
          "internalType": "int256",
          "name": "netPnl",
          "type": "int256"
        },
        {
          "internalType": "uint256",
          "name": "level",
          "type": "uint256"
        },
        {
          "internalType": "uint256",
          "name": "raidWins",
          "type": "uint256"
        },
        {
          "internalType": "uint256",
          "name": "raidLosses",
          "type": "uint256"
        },
        {
          "internalType": "uint8",
          "name": "strategyType",
          "type": "uint8"
        },
        {
          "internalType": "bool",
          "name": "exists",
          "type": "bool"
        }
      ],
      "stateMutability": "view",
      "type": "function"
    },
    {
      "inputs": [],
      "name": "owner",
      "outputs": [
        {
          "internalType": "address",
          "name": "",
          "type": "address"
        }
      ],
      "stateMutability": "view",
      "type": "function"
    },
    {
      "inputs": [],
      "name": "raidContract",
      "outputs": [
        {
          "internalType": "address",
          "name": "",
          "type": "address"
        }
      ],
      "stateMutability": "view",
      "type": "function"
    },
    {
      "inputs": [
        {
          "internalType": "uint256",
          "name": "agentId",
          "type": "uint256"
        },
        {
          "internalType": "string",
          "name": "action",
          "type": "string"
        },
        {
          "internalType": "string",
          "name": "protocol",
          "type": "string"
        },
        {
          "internalType": "bytes",
          "name": "params",
          "type": "bytes"
        }
      ],
      "name": "recordDecision",
      "outputs": [],
      "stateMutability": "nonpayable",
      "type": "function"
    },
    {
      "inputs": [
        {
          "internalType": "uint256",
          "name": "attackerId",
          "type": "uint256"
        },
        {
          "internalType": "uint256",
          "name": "defenderId",
          "type": "uint256"
        },
        {
          "internalType": "bool",
          "name": "attackerWon",
          "type": "bool"
        }
      ],
      "name": "recordRaid",
      "outputs": [],
      "stateMutability": "nonpayable",
      "type": "function"
    },
    {
      "inputs": [],
      "name": "referee",
      "outputs": [
        {
          "internalType": "address",
          "name": "",
          "type": "address"
        }
      ],
      "stateMutability": "view",
      "type": "function"
    },
    {
      "inputs": [
        {
          "internalType": "address",
          "name": "_raidContract",
          "type": "address"
        }
      ],
      "name": "setRaidContract",
      "outputs": [],
      "stateMutability": "nonpayable",
      "type": "function"
    },
    {
      "inputs": [
        {
          "internalType": "address",
          "name": "_referee",
          "type": "address"
        }
      ],
      "name": "setReferee",
      "outputs": [],
      "stateMutability": "nonpayable",
      "type": "function"
    },
    {
      "inputs": [
        {
          "internalType": "uint256",
          "name": "agentId",
          "type": "uint256"
        },
        {
          "internalType": "address",
          "name": "wallet",
          "type": "address"
        },
        {
          "internalType": "uint8",
          "name": "strategyType",
          "type": "uint8"
        }
      ],
      "name": "spawnAgent",
      "outputs": [],
      "stateMutability": "nonpayable",
      "type": "function"
    },
    {
      "inputs": [
        {
          "internalType": "uint256",
          "name": "agentId",
          "type": "uint256"
        },
        {
          "internalType": "int256",
          "name": "pnlDelta",
          "type": "int256"
        },
        {
          "internalType": "uint256",
          "name": "newVolume",
          "type": "uint256"
        }
      ],
      "name": "updateAgent",
      "outputs": [],
      "stateMutability": "nonpayable",
      "type": "function"
    }
  ],
  "bytecode": "0x608060405234801561001057600080fd5b50600080546001600160a01b03191633179055610c33806100326000396000f3fe608060405234801561001057600080fd5b50600436106100a95760003560e01c8063671615cf11610071578063671615cf146101c55780638da5cb5b146101d8578063b48a5e53146101eb578063b61ccec2146101fe578063b7dc128414610211578063c4a796c11461022857600080fd5b80631f6e64e4146100ae5780633b1bebd1146100de578063513856c8146100f157806359504f9b1461019d57806363250753146101b2575b600080fd5b6002546100c1906001600160a01b031681565b6040516001600160a01b0390911681526020015b60405180910390f35b6001546100c1906001600160a01b031681565b6101536100ff3660046108bc565b600360208190526000918252604090912080546001820154600283015493830154600484015460058501546006909501546001600160a01b0390941695929492939192909160ff8082169161010090041688565b604080516001600160a01b0390991689526020890197909752958701949094526060860192909252608085015260a084015260ff1660c0830152151560e0820152610100016100d5565b6101b06101ab3660046108d5565b61023b565b005b6101b06101c036600461094a565b6103cb565b6101b06101d3366004610a0a565b6104cd565b6000546100c1906001600160a01b031681565b6101b06101f9366004610a2c565b610519565b6101b061020c366004610a6a565b61068c565b61021a60045481565b6040519081526020016100d5565b6101b0610236366004610a0a565b610870565b6001546001600160a01b031633148061025e57506002546001600160a01b031633145b8061027357506000546001600160a01b031633145b6102b55760405162461bcd60e51b815260206004820152600e60248201526d139bdd08185d5d1a1bdc9a5e995960921b60448201526064015b60405180910390fd5b60008381526003602052604090206006810154610100900460ff166102ec5760405162461bcd60e51b81526004016102ac90610aa5565b818160010181905550828160020160008282546103099190610ae4565b909155506000905061032569152d02c7e14af680000084610b0c565b610330906001610b2e565b9050816003015481111561037b576003820181905560405181815285907fef1bedc42a97e08a00cd28cca0caf4d74cdc05cd50c526f2a45f8b899cf228619060200160405180910390a25b600382015460408051868152602081018690529081019190915285907f5ba8ba395c348211ab40c0bddec6c3e392a437402d57c4067c51587cc81739f49060600160405180910390a25050505050565b600087815260036020526040902060060154610100900460ff166104015760405162461bcd60e51b81526004016102ac90610aa5565b6000878152600360205260409020546001600160a01b031633148061043057506000546001600160a01b031633145b8061044557506001546001600160a01b031633145b6104805760405162461bcd60e51b815260206004820152600c60248201526b155b985d5d1a1bdc9a5e995960a21b60448201526064016102ac565b867f20a5948545b230ec1310cde9aafa96a96c620a5a5aae940543457ec5f47e7487878787878787426040516104bc9796959493929190610b70565b60405180910390a250505050505050565b6000546001600160a01b031633146104f75760405162461bcd60e51b81526004016102ac90610bc1565b600280546001600160a01b0319166001600160a01b0392909216919091179055565b6001546001600160a01b031633148061053c57506002546001600160a01b031633145b8061055157506000546001600160a01b031633145b61058e5760405162461bcd60e51b815260206004820152600e60248201526d139bdd08185d5d1a1bdc9a5e995960921b60448201526064016102ac565b60008381526003602052604080822084835291206006820154610100900460ff1680156105c457506006810154610100900460ff165b6105e05760405162461bcd60e51b81526004016102ac90610aa5565b8215610619576004820180549060006105f883610be4565b909155505060058101805490600061060f83610be4565b9190505550610648565b60058201805490600061062b83610be4565b909155505060048101805490600061064283610be4565b91905055505b83857f82bc5418aea5dbf3bcab249584ab5fff82315a9d74a4abd0459f3c9af2b990928560405161067d911515815260200190565b60405180910390a35050505050565b6000546001600160a01b031633146106b65760405162461bcd60e51b81526004016102ac90610bc1565b600083815260036020526040902060060154610100900460ff161561070c5760405162461bcd60e51b815260206004820152600c60248201526b4167656e742065786973747360a01b60448201526064016102ac565b604051806101000160405280836001600160a01b0316815260200160008152602001600081526020016001815260200160008152602001600081526020018260ff168152602001600115158152506003600085815260200190815260200160002060008201518160000160006101000a8154816001600160a01b0302191690836001600160a01b031602179055506020820151816001015560408201518160020155606082015181600301556080820151816004015560a0820151816005015560c08201518160060160006101000a81548160ff021916908360ff16021790555060e08201518160060160016101000a81548160ff0219169083151502179055509050506004600081548092919061082390610be4565b909155505060405160ff821681526001600160a01b0383169084907f671807ed8fc16f6a32da9150cdc5bc0e4886af660c68d16d4eff3d055c659e349060200160405180910390a3505050565b6000546001600160a01b0316331461089a5760405162461bcd60e51b81526004016102ac90610bc1565b600180546001600160a01b0319166001600160a01b0392909216919091179055565b6000602082840312156108ce57600080fd5b5035919050565b6000806000606084860312156108ea57600080fd5b505081359360208301359350604090920135919050565b60008083601f84011261091357600080fd5b50813567ffffffffffffffff81111561092b57600080fd5b60208301915083602082850101111561094357600080fd5b9250929050565b60008060008060008060006080888a03121561096557600080fd5b87359650602088013567ffffffffffffffff8082111561098457600080fd5b6109908b838c01610901565b909850965060408a01359150808211156109a957600080fd5b6109b58b838c01610901565b909650945060608a01359150808211156109ce57600080fd5b506109db8a828b01610901565b989b979a50959850939692959293505050565b80356001600160a01b0381168114610a0557600080fd5b919050565b600060208284031215610a1c57600080fd5b610a25826109ee565b9392505050565b600080600060608486031215610a4157600080fd5b833592506020840135915060408401358015158114610a5f57600080fd5b809150509250925092565b600080600060608486031215610a7f57600080fd5b83359250610a8f602085016109ee565b9150604084013560ff81168114610a5f57600080fd5b6020808252600f908201526e1059d95b9d081b9bdd08199bdd5b99608a1b604082015260600190565b634e487b7160e01b600052601160045260246000fd5b8082018281126000831280158216821582161715610b0457610b04610ace565b505092915050565b600082610b2957634e487b7160e01b600052601260045260246000fd5b500490565b80820180821115610b4157610b41610ace565b92915050565b81835281816020850137506000828201602090810191909152601f909101601f19169091010190565b608081526000610b8460808301898b610b47565b8281036020840152610b9781888a610b47565b90508281036040840152610bac818688610b47565b91505082606083015298975050505050505050565b6020808252600990820152682737ba1037bbb732b960b91b604082015260600190565b600060018201610bf657610bf6610ace565b506001019056fea264697066735822122085564397691464a299041dcf2a8ef17c6718889fc19a8073b072598ee103033c64736f6c63430008140033",
  "linkReferences": {},
  "deployedLinkReferences": {}
}