{
  "_format": "hh-sol-artifact-1",
  "contractName": "CityState",
  "sourceName": "contracts/CityState.sol",
  "abi": [
    {
      "inputs": [],
      "stateMutability": "nonpayable",
      "type": "constructor"
    },
    {
      "anonymous": false,
      "inputs": [
        {
          "indexed": true,
          "internalType": "uint256",
          "name": "agentId",
          "type": "uint256"
        },
        {
          "indexed": false,
          "internalType": "string",
          "name": "action",
          "type": "string"
        },
        {
          "indexed": false,
          "internalType": "string",
          "name": "protocol",
          "type": "string"
        },
        {
          "indexed": false,
          "internalType": "bytes",
          "name": "params",
          "type": "bytes"
        },
        {
          "indexed": false,
          "internalType": "uint256",
          "name": "ts",
          "type": "uint256"
        }
      ],
      "name": "AgentDecision",
      "type": "event"
    },
    {
      "anonymous": false,
      "inputs": [
        {
          "indexed": true,
          "internalType": "uint256",
          "name": "agentId",
          "type": "uint256"
        },
        {
          "indexed": false,
          "internalType": "int256",
          "name": "pnlDelta",
          "type": "int256"
        },
        {
          "indexed": false,
          "internalType": "uint256",
          "name": "newVolume",
          "type": "uint256"
        },
        {
          "indexed": false,
          "internalType": "uint256",
          "name": "newLevel",
          "type": "uint256"
        }
      ],
      "name": "AgentOutcome",
      "type": "event"
    },
    {
      "anonymous": false,
      "inputs": [
        {
          "indexed": true,
          "internalType": "uint256",
          "name": "agentId",
          "type": "uint256"
        },
        {
          "indexed": true,
          "internalType": "address",
          "name": "wallet",
          "type": "address"
        },
        {
          "indexed": false,
          "internalType": "uint8",
          "name": "strategyType",
          "type": "uint8"
        }
      ],
      "name": "AgentSpawned",
      "type": "event"
    },
    {
      "anonymous": false,
      "inputs": [
        {
          "indexed": true,
          "internalType": "uint256",
          "name": "agentId",
          "type": "uint256"
        },
        {
          "indexed": false,
          "internalType": "uint256",
          "name": "newLevel",
          "type": "uint256"
        }
      ],
      "name": "BuildingGrew",
      "type": "event"
    },
    {
      "inputs": [],
      "name": "agentCount",
      "outputs": [
        {
          "internalType": "uint256",
          "name": "",
          "type": "uint256"
        }
      ],
      "stateMutability": "view",
      "type": "function"
    },
    {
      "inputs": [
        {
          "internalType": "uint256",
          "name": "",
          "type": "uint256"
        }
      ],
      "name": "agents",
      "outputs": [
        {
          "internalType": "address",
          "name": "wallet",
          "type": "address"
        },
        {
          "internalType": "uint256",
          "name": "totalVolume",
          "type": "uint256"
        },
        {
          "internalType": "int256",
          "name": "netPnl",
          "type": "int256"
        },
        {
          "internalType": "uint256",
          "name": "level",
          "type": "uint256"
        },
        {
          "internalType": "uint256",
          "name": "raidWins",
          "type": "uint256"
        },
        {
          "internalType": "uint256",
          "name": "raidLosses",
          "type": "uint256"
        },
        {
          "internalType": "uint8",
          "name": "strategyType",
          "type": "uint8"
        },
        {
          "internalType": "bool",
          "name": "exists",
          "type": "bool"
        }
      ],
      "stateMutability": "view",
      "type": "function"
    },
    {
      "inputs": [],
      "name": "owner",
      "outputs": [
        {
          "internalType": "address",
          "name": "",
          "type": "address"
        }
      ],
      "stateMutability": "view",
      "type": "function"
    },
    {
      "inputs": [
        {
          "internalType": "uint256",
          "name": "agentId",
          "type": "uint256"
        },
        {
          "internalType": "string",
          "name": "action",
          "type": "string"
        },
        {
          "internalType": "string",
          "name": "protocol",
          "type": "string"
        },
        {
          "internalType": "bytes",
          "name": "params",
          "type": "bytes"
        }
      ],
      "name": "recordDecision",
      "outputs": [],
      "stateMutability": "nonpayable",
      "type": "function"
    },
    {
      "inputs": [
        {
          "internalType": "uint256",
          "name": "attackerId",
          "type": "uint256"
        },
        {
          "internalType": "uint256",
          "name": "defenderId",
          "type": "uint256"
        },
        {
          "internalType": "bool",
          "name": "attackerWon",
          "type": "bool"
        }
      ],
      "name": "recordRaid",
      "outputs": [],
      "stateMutability": "nonpayable",
      "type": "function"
    },
    {
      "inputs": [],
      "name": "referee",
      "outputs": [
        {
          "internalType": "address",
          "name": "",
          "type": "address"
        }
      ],
      "stateMutability": "view",
      "type": "function"
    },
    {
      "inputs": [
        {
          "internalType": "address",
          "name": "_referee",
          "type": "address"
        }
      ],
      "name": "setReferee",
      "outputs": [],
      "stateMutability": "nonpayable",
      "type": "function"
    },
    {
      "inputs": [
        {
          "internalType": "uint256",
          "name": "agentId",
          "type": "uint256"
        },
        {
          "internalType": "address",
          "name": "wallet",
          "type": "address"
        },
        {
          "internalType": "uint8",
          "name": "strategyType",
          "type": "uint8"
        }
      ],
      "name": "spawnAgent",
      "outputs": [],
      "stateMutability": "nonpayable",
      "type": "function"
    },
    {
      "inputs": [
        {
          "internalType": "uint256",
          "name": "agentId",
          "type": "uint256"
        },
        {
          "internalType": "int256",
          "name": "pnlDelta",
          "type": "int256"
        },
        {
          "internalType": "uint256",
          "name": "newVolume",
          "type": "uint256"
        }
      ],
      "name": "updateAgent",
      "outputs": [],
      "stateMutability": "nonpayable",
      "type": "function"
    }
  ],
  "bytecode": "0x608060405234801561001057600080fd5b50600080546001600160a01b03191633179055610b52806100326000396000f3fe608060405234801561001057600080fd5b50600436106100935760003560e01c80638da5cb5b116100665780638da5cb5b1461019b578063b48a5e53146101ae578063b61ccec2146101c1578063b7dc1284146101d4578063c4a796c1146101eb57600080fd5b80633b1bebd114610098578063513856c8146100c857806359504f9b146101735780636325075314610188575b600080fd5b6001546100ab906001600160a01b031681565b6040516001600160a01b0390911681526020015b60405180910390f35b6101296100d63660046107fe565b600260208190526000918252604090912080546001820154928201546003830154600484015460058501546006909501546001600160a01b03909416959492939192909160ff8082169161010090041688565b604080516001600160a01b0390991689526020890197909752958701949094526060860192909252608085015260a084015260ff1660c0830152151560e0820152610100016100bf565b610186610181366004610817565b6101fe565b005b61018661019636600461088c565b610376565b6000546100ab906001600160a01b031681565b6101866101bc366004610930565b610478565b6101866101cf36600461098a565b610596565b6101dd60035481565b6040519081526020016100bf565b6101866101f93660046109c5565b610796565b6001546001600160a01b031633148061022157506000546001600160a01b031633145b6102605760405162461bcd60e51b815260206004820152600b60248201526a4e6f74207265666572656560a81b60448201526064015b60405180910390fd5b60008381526002602052604090206006810154610100900460ff166102975760405162461bcd60e51b8152600401610257906109e7565b818160010181905550828160020160008282546102b49190610a26565b90915550600090506102d069152d02c7e14af680000084610a4e565b6102db906001610a70565b90508160030154811115610326576003820181905560405181815285907fef1bedc42a97e08a00cd28cca0caf4d74cdc05cd50c526f2a45f8b899cf228619060200160405180910390a25b600382015460408051868152602081018690529081019190915285907f5ba8ba395c348211ab40c0bddec6c3e392a437402d57c4067c51587cc81739f49060600160405180910390a25050505050565b600087815260026020526040902060060154610100900460ff166103ac5760405162461bcd60e51b8152600401610257906109e7565b6000878152600260205260409020546001600160a01b03163314806103db57506000546001600160a01b031633145b806103f057506001546001600160a01b031633145b61042b5760405162461bcd60e51b815260206004820152600c60248201526b155b985d5d1a1bdc9a5e995960a21b6044820152606401610257565b867f20a5948545b230ec1310cde9aafa96a96c620a5a5aae940543457ec5f47e7487878787878787426040516104679796959493929190610ab2565b60405180910390a250505050505050565b6001546001600160a01b031633148061049b57506000546001600160a01b031633145b6104d55760405162461bcd60e51b815260206004820152600b60248201526a4e6f74207265666572656560a81b6044820152606401610257565b60008381526002602052604080822084835291206006820154610100900460ff16801561050b57506006810154610100900460ff165b6105275760405162461bcd60e51b8152600401610257906109e7565b82156105605760048201805490600061053f83610b03565b909155505060058101805490600061055683610b03565b919050555061058f565b60058201805490600061057283610b03565b909155505060048101805490600061058983610b03565b91905055505b5050505050565b6000546001600160a01b031633146105dc5760405162461bcd60e51b81526020600482015260096024820152682737ba1037bbb732b960b91b6044820152606401610257565b600083815260026020526040902060060154610100900460ff16156106325760405162461bcd60e51b815260206004820152600c60248201526b4167656e742065786973747360a01b6044820152606401610257565b604051806101000160405280836001600160a01b0316815260200160008152602001600081526020016001815260200160008152602001600081526020018260ff168152602001600115158152506002600085815260200190815260200160002060008201518160000160006101000a8154816001600160a01b0302191690836001600160a01b031602179055506020820151816001015560408201518160020155606082015181600301556080820151816004015560a0820151816005015560c08201518160060160006101000a81548160ff021916908360ff16021790555060e08201518160060160016101000a81548160ff0219169083151502179055509050506003600081548092919061074990610b03565b909155505060405160ff821681526001600160a01b0383169084907f671807ed8fc16f6a32da9150cdc5bc0e4886af660c68d16d4eff3d055c659e349060200160405180910390a3505050565b6000546001600160a01b031633146107dc5760405162461bcd60e51b81526020600482015260096024820152682737ba1037bbb732b960b91b6044820152606401610257565b600180546001600160a01b0319166001600160a01b0392909216919091179055565b60006020828403121561081057600080fd5b5035919050565b60008060006060848603121561082c57600080fd5b505081359360208301359350604090920135919050565b60008083601f84011261085557600080fd5b50813567ffffffffffffffff81111561086d57600080fd5b60208301915083602082850101111561088557600080fd5b9250929050565b60008060008060008060006080888a0312156108a757600080fd5b87359650602088013567ffffffffffffffff808211156108c657600080fd5b6108d28b838c01610843565b909850965060408a01359150808211156108eb57600080fd5b6108f78b838c01610843565b909650945060608a013591508082111561091057600080fd5b5061091d8a828b01610843565b989b979a50959850939692959293505050565b60008060006060848603121561094557600080fd5b83359250602084013591506040840135801515811461096357600080fd5b809150509250925092565b80356001600160a01b038116811461098557600080fd5b919050565b60008060006060848603121561099f57600080fd5b833592506109af6020850161096e565b9150604084013560ff8116811461096357600080fd5b6000602082840312156109d757600080fd5b6109e08261096e565b9392505050565b6020808252600f908201526e1059d95b9d081b9bdd08199bdd5b99608a1b604082015260600190565b634e487b7160e01b600052601160045260246000fd5b8082018281126000831280158216821582161715610a4657610a46610a10565b505092915050565b600082610a6b57634e487b7160e01b600052601260045260246000fd5b500490565b80820180821115610a8357610a83610a10565b92915050565b81835281816020850137506000828201602090810191909152601f909101601f19169091010190565b608081526000610ac660808301898b610a89565b8281036020840152610ad981888a610a89565b90508281036040840152610aee818688610a89565b91505082606083015298975050505050505050565b600060018201610b1557610b15610a10565b506001019056fea2646970667358221220c9ca22c4406f9fd703146d3b1b05b47685c67c4c4bc2d0e1bbe78e4249a4c8cb64736f6c63430008140033",
  "linkReferences": {},
  "deployedLinkReferences": {}
}