{
  "_format": "hh-sol-artifact-1",
  "contractName": "RaidContract",
  "sourceName": "contracts/RaidContract.sol",
  "abi": [
    {
      "inputs": [
        {
          "internalType": "address",
          "name": "_cityState",
          "type": "address"
        },
        {
          "internalType": "address",
          "name": "_sprawlToken",
          "type": "address"
        }
      ],
      "stateMutability": "nonpayable",
      "type": "constructor"
    },
    {
      "anonymous": false,
      "inputs": [
        {
          "indexed": true,
          "internalType": "uint256",
          "name": "attackerId",
          "type": "uint256"
        },
        {
          "indexed": true,
          "internalType": "uint256",
          "name": "defenderId",
          "type": "uint256"
        },
        {
          "indexed": false,
          "internalType": "bool",
          "name": "attackerWon",
          "type": "bool"
        },
        {
          "indexed": false,
          "internalType": "uint256",
          "name": "attackScore",
          "type": "uint256"
        },
        {
          "indexed": false,
          "internalType": "uint256",
          "name": "defenseScore",
          "type": "uint256"
        }
      ],
      "name": "RaidResult",
      "type": "event"
    },
    {
      "inputs": [],
      "name": "BURN_ADDRESS",
      "outputs": [
        {
          "internalType": "address",
          "name": "",
          "type": "address"
        }
      ],
      "stateMutability": "view",
      "type": "function"
    },
    {
      "inputs": [],
      "name": "MAX_DAILY_RAIDS",
      "outputs": [
        {
          "internalType": "uint256",
          "name": "",
          "type": "uint256"
        }
      ],
      "stateMutability": "view",
      "type": "function"
    },
    {
      "inputs": [],
      "name": "RAID_COST",
      "outputs": [
        {
          "internalType": "uint256",
          "name": "",
          "type": "uint256"
        }
      ],
      "stateMutability": "view",
      "type": "function"
    },
    {
      "inputs": [],
      "name": "WEEKLY_COOLDOWN",
      "outputs": [
        {
          "internalType": "uint256",
          "name": "",
          "type": "uint256"
        }
      ],
      "stateMutability": "view",
      "type": "function"
    },
    {
      "inputs": [],
      "name": "cityState",
      "outputs": [
        {
          "internalType": "contract ICityStateRaid",
          "name": "",
          "type": "address"
        }
      ],
      "stateMutability": "view",
      "type": "function"
    },
    {
      "inputs": [
        {
          "internalType": "uint256",
          "name": "",
          "type": "uint256"
        },
        {
          "internalType": "uint256",
          "name": "",
          "type": "uint256"
        }
      ],
      "name": "dailyRaids",
      "outputs": [
        {
          "internalType": "uint256",
          "name": "",
          "type": "uint256"
        }
      ],
      "stateMutability": "view",
      "type": "function"
    },
    {
      "inputs": [
        {
          "internalType": "uint256",
          "name": "attackerId",
          "type": "uint256"
        },
        {
          "internalType": "uint256",
          "name": "defenderId",
          "type": "uint256"
        },
        {
          "internalType": "address",
          "name": "raidPayer",
          "type": "address"
        }
      ],
      "name": "initiateRaid",
      "outputs": [],
      "stateMutability": "nonpayable",
      "type": "function"
    },
    {
      "inputs": [],
      "name": "owner",
      "outputs": [
        {
          "internalType": "address",
          "name": "",
          "type": "address"
        }
      ],
      "stateMutability": "view",
      "type": "function"
    },
    {
      "inputs": [],
      "name": "sprawlToken",
      "outputs": [
        {
          "internalType": "contract IERC20",
          "name": "",
          "type": "address"
        }
      ],
      "stateMutability": "view",
      "type": "function"
    },
    {
      "inputs": [
        {
          "internalType": "uint256",
          "name": "",
          "type": "uint256"
        },
        {
          "internalType": "uint256",
          "name": "",
          "type": "uint256"
        }
      ],
      "name": "weeklyTarget",
      "outputs": [
        {
          "internalType": "uint256",
          "name": "",
          "type": "uint256"
        }
      ],
      "stateMutability": "view",
      "type": "function"
    }
  ],
  "bytecode": "0x608060405234801561001057600080fd5b5060405161092738038061092783398101604081905261002f91610087565b600080546001600160a01b03199081163317909155600180546001600160a01b03948516908316179055600280549290931691161790556100ba565b80516001600160a01b038116811461008257600080fd5b919050565b6000806040838503121561009a57600080fd5b6100a38361006b565b91506100b16020840161006b565b90509250929050565b61085e806100c96000396000f3fe608060405234801561001057600080fd5b506004361061009e5760003560e01c806384eced0d1161006657806384eced0d1461013c5780638da5cb5b146101465780639d2772a614610159578063b6c6302614610184578063fccc28131461019357600080fd5b80633e198679146100a357806340da6198146100e157806340f1aad1146100f657806344590cab146100fe5780635709a54914610129575b600080fd5b6100ce6100b1366004610670565b600360209081526000928352604080842090915290825290205481565b6040519081526020015b60405180910390f35b6100f46100ef3660046106aa565b61019c565b005b6100ce600381565b600154610111906001600160a01b031681565b6040516001600160a01b0390911681526020016100d8565b600254610111906001600160a01b031681565b6100ce62093a8081565b600054610111906001600160a01b031681565b6100ce610167366004610670565b600460209081526000928352604080842090915290825290205481565b6100ce674563918244f4000081565b61011161dead81565b6000546001600160a01b031633146101e75760405162461bcd60e51b81526020600482015260096024820152682737ba1037bbb732b960b91b60448201526064015b60405180910390fd5b8183036102295760405162461bcd60e51b815260206004820152601060248201526f10d85b9b9bdd081cd95b198b5c985a5960821b60448201526064016101de565b610232836104df565b61023b826104df565b600061024a62015180426106f9565b600085815260036020818152604080842085855290915290912054919250116102a75760405162461bcd60e51b815260206004820152600f60248201526e4d6178206461696c7920726169647360881b60448201526064016101de565b600084815260046020908152604080832086845290915290205415806102f45750600084815260046020908152604080832086845290915290205462093a80906102f1904261071b565b10155b6103325760405162461bcd60e51b815260206004820152600f60248201526e2bb2b2b5b63c9031b7b7b63237bbb760891b60448201526064016101de565b600061033f85603261059a565b9050600061034e85601e61059a565b600087815260036020908152604080832087845290915281208054929350838511929161037a8361072e565b909155505060008781526004602081815260408084208a855290915291829020429055600154915163b48a5e5360e01b81529081018990526024810188905282151560448201526001600160a01b039091169063b48a5e5390606401600060405180830381600087803b1580156103f057600080fd5b505af1158015610404573d6000803e3d6000fd5b50506002546040516323b872dd60e01b81526001600160a01b03898116600483015261dead6024830152674563918244f40000604483015290911692506323b872dd91506064016020604051808303816000875af115801561046a573d6000803e3d6000fd5b505050506040513d601f19601f8201168201806040525081019061048e919061075c565b5060408051821515815260208101859052908101839052869088907f63cfbc0ceb28dd243729bd7ed009a9c265d95d4e08ebdbce86398ba2f1240e409060600160405180910390a350505050505050565b600154604051630a270ad960e31b8152600481018390526000916001600160a01b03169063513856c89060240161010060405180830381865afa15801561052a573d6000803e3d6000fd5b505050506040513d601f19601f8201168201806040525081019061054e919061077e565b975050505050505050806105965760405162461bcd60e51b815260206004820152600f60248201526e1059d95b9d081b9bdd08199bdd5b99608a1b60448201526064016101de565b5050565b600154604051630a270ad960e31b8152600481018490526000918291829182916001600160a01b039091169063513856c89060240161010060405180830381865afa1580156105ed573d6000803e3d6000fd5b505050506040513d601f19601f82011682018060405250810190610611919061077e565b505050945094505093505081600a61062991906107fe565b61063386836107fe565b610645670de0b6b3a7640000866106f9565b6106509060036107fe565b61065a9190610815565b6106649190610815565b93505050505b92915050565b6000806040838503121561068357600080fd5b50508035926020909101359150565b6001600160a01b03811681146106a757600080fd5b50565b6000806000606084860312156106bf57600080fd5b833592506020840135915060408401356106d881610692565b809150509250925092565b634e487b7160e01b600052601160045260246000fd5b60008261071657634e487b7160e01b600052601260045260246000fd5b500490565b8181038181111561066a5761066a6106e3565b600060018201610740576107406106e3565b5060010190565b8051801515811461075757600080fd5b919050565b60006020828403121561076e57600080fd5b61077782610747565b9392505050565b600080600080600080600080610100898b03121561079b57600080fd5b88516107a681610692565b809850506020890151965060408901519550606089015194506080890151935060a0890151925060c089015160ff811681146107e157600080fd5b91506107ef60e08a01610747565b90509295985092959890939650565b808202811582820484141761066a5761066a6106e3565b8082018082111561066a5761066a6106e356fea2646970667358221220b887e058ea58044b81431ce1ea734b3f1140694135a1a1924a28038f6ae1b9a964736f6c63430008140033",
  "linkReferences": {},
  "deployedLinkReferences": {}
}