{
  "_format": "hh-sol-artifact-1",
  "contractName": "SprawlToken",
  "sourceName": "contracts/SprawlToken.sol",
  "abi": [
    {
      "inputs": [
        {
          "internalType": "string",
          "name": "name_",
          "type": "string"
        },
        {
          "internalType": "string",
          "name": "symbol_",
          "type": "string"
        },
        {
          "internalType": "address",
          "name": "minter_",
          "type": "address"
        }
      ],
      "stateMutability": "nonpayable",
      "type": "constructor"
    },
    {
      "inputs": [
        {
          "internalType": "address",
          "name": "spender",
          "type": "address"
        },
        {
          "internalType": "uint256",
          "name": "allowance",
          "type": "uint256"
        },
        {
          "internalType": "uint256",
          "name": "needed",
          "type": "uint256"
        }
      ],
      "name": "ERC20InsufficientAllowance",
      "type": "error"
    },
    {
      "inputs": [
        {
          "internalType": "address",
          "name": "sender",
          "type": "address"
        },
        {
          "internalType": "uint256",
          "name": "balance",
          "type": "uint256"
        },
        {
          "internalType": "uint256",
          "name": "needed",
          "type": "uint256"
        }
      ],
      "name": "ERC20InsufficientBalance",
      "type": "error"
    },
    {
      "inputs": [
        {
          "internalType": "address",
          "name": "approver",
          "type": "address"
        }
      ],
      "name": "ERC20InvalidApprover",
      "type": "error"
    },
    {
      "inputs": [
        {
          "internalType": "address",
          "name": "receiver",
          "type": "address"
        }
      ],
      "name": "ERC20InvalidReceiver",
      "type": "error"
    },
    {
      "inputs": [
        {
          "internalType": "address",
          "name": "sender",
          "type": "address"
        }
      ],
      "name": "ERC20InvalidSender",
      "type": "error"
    },
    {
      "inputs": [
        {
          "internalType": "address",
          "name": "spender",
          "type": "address"
        }
      ],
      "name": "ERC20InvalidSpender",
      "type": "error"
    },
    {
      "anonymous": false,
      "inputs": [
        {
          "indexed": true,
          "internalType": "address",
          "name": "owner",
          "type": "address"
        },
        {
          "indexed": true,
          "internalType": "address",
          "name": "spender",
          "type": "address"
        },
        {
          "indexed": false,
          "internalType": "uint256",
          "name": "value",
          "type": "uint256"
        }
      ],
      "name": "Approval",
      "type": "event"
    },
    {
      "anonymous": false,
      "inputs": [
        {
          "indexed": true,
          "internalType": "address",
          "name": "from",
          "type": "address"
        },
        {
          "indexed": true,
          "internalType": "address",
          "name": "to",
          "type": "address"
        },
        {
          "indexed": false,
          "internalType": "uint256",
          "name": "value",
          "type": "uint256"
        }
      ],
      "name": "Transfer",
      "type": "event"
    },
    {
      "inputs": [
        {
          "internalType": "address",
          "name": "owner",
          "type": "address"
        },
        {
          "internalType": "address",
          "name": "spender",
          "type": "address"
        }
      ],
      "name": "allowance",
      "outputs": [
        {
          "internalType": "uint256",
          "name": "",
          "type": "uint256"
        }
      ],
      "stateMutability": "view",
      "type": "function"
    },
    {
      "inputs": [
        {
          "internalType": "address",
          "name": "spender",
          "type": "address"
        },
        {
          "internalType": "uint256",
          "name": "value",
          "type": "uint256"
        }
      ],
      "name": "approve",
      "outputs": [
        {
          "internalType": "bool",
          "name": "",
          "type": "bool"
        }
      ],
      "stateMutability": "nonpayable",
      "type": "function"
    },
    {
      "inputs": [
        {
          "internalType": "address",
          "name": "account",
          "type": "address"
        }
      ],
      "name": "balanceOf",
      "outputs": [
        {
          "internalType": "uint256",
          "name": "",
          "type": "uint256"
        }
      ],
      "stateMutability": "view",
      "type": "function"
    },
    {
      "inputs": [],
      "name": "decimals",
      "outputs": [
        {
          "internalType": "uint8",
          "name": "",
          "type": "uint8"
        }
      ],
      "stateMutability": "view",
      "type": "function"
    },
    {
      "inputs": [
        {
          "internalType": "address",
          "name": "to",
          "type": "address"
        },
        {
          "internalType": "uint256",
          "name": "amount",
          "type": "uint256"
        }
      ],
      "name": "mint",
      "outputs": [],
      "stateMutability": "nonpayable",
      "type": "function"
    },
    {
      "inputs": [],
      "name": "minter",
      "outputs": [
        {
          "internalType": "address",
          "name": "",
          "type": "address"
        }
      ],
      "stateMutability": "view",
      "type": "function"
    },
    {
      "inputs": [],
      "name": "name",
      "outputs": [
        {
          "internalType": "string",
          "name": "",
          "type": "string"
        }
      ],
      "stateMutability": "view",
      "type": "function"
    },
    {
      "inputs": [],
      "name": "owner",
      "outputs": [
        {
          "internalType": "address",
          "name": "",
          "type": "address"
        }
      ],
      "stateMutability": "view",
      "type": "function"
    },
    {
      "inputs": [],
      "name": "secondaryMinter",
      "outputs": [
        {
          "internalType": "address",
          "name": "",
          "type": "address"
        }
      ],
      "stateMutability": "view",
      "type": "function"
    },
    {
      "inputs": [
        {
          "internalType": "address",
          "name": "newMinter",
          "type": "address"
        }
      ],
      "name": "setMinter",
      "outputs": [],
      "stateMutability": "nonpayable",
      "type": "function"
    },
    {
      "inputs": [
        {
          "internalType": "address",
          "name": "_secondaryMinter",
          "type": "address"
        }
      ],
      "name": "setSecondaryMinter",
      "outputs": [],
      "stateMutability": "nonpayable",
      "type": "function"
    },
    {
      "inputs": [],
      "name": "symbol",
      "outputs": [
        {
          "internalType": "string",
          "name": "",
          "type": "string"
        }
      ],
      "stateMutability": "view",
      "type": "function"
    },
    {
      "inputs": [],
      "name": "totalSupply",
      "outputs": [
        {
          "internalType": "uint256",
          "name": "",
          "type": "uint256"
        }
      ],
      "stateMutability": "view",
      "type": "function"
    },
    {
      "inputs": [
        {
          "internalType": "address",
          "name": "to",
          "type": "address"
        },
        {
          "internalType": "uint256",
          "name": "value",
          "type": "uint256"
        }
      ],
      "name": "transfer",
      "outputs": [
        {
          "internalType": "bool",
          "name": "",
          "type": "bool"
        }
      ],
      "stateMutability": "nonpayable",
      "type": "function"
    },
    {
      "inputs": [
        {
          "internalType": "address",
          "name": "from",
          "type": "address"
        },
        {
          "internalType": "address",
          "name": "to",
          "type": "address"
        },
        {
          "internalType": "uint256",
          "name": "value",
          "type": "uint256"
        }
      ],
      "name": "transferFrom",
      "outputs": [
        {
          "internalType": "bool",
          "name": "",
          "type": "bool"
        }
      ],
      "stateMutability": "nonpayable",
      "type": "function"
    },
    {
      "inputs": [
        {
          "internalType": "address",
          "name": "newOwner",
          "type": "address"
        }
      ],
      "name": "transferOwnership",
      "outputs": [],
      "stateMutability": "nonpayable",
      "type": "function"
    }
  ],
  "bytecode": "0x60806040523480156200001157600080fd5b5060405162000e0f38038062000e0f833981016040819052620000349162000153565b828260036200004483826200026f565b5060046200005382826200026f565b505060058054336001600160a01b031991821617909155600680549091166001600160a01b039390931692909217909155506200033b915050565b634e487b7160e01b600052604160045260246000fd5b600082601f830112620000b657600080fd5b81516001600160401b0380821115620000d357620000d36200008e565b604051601f8301601f19908116603f01168101908282118183101715620000fe57620000fe6200008e565b816040528381526020925086838588010111156200011b57600080fd5b600091505b838210156200013f578582018301518183018401529082019062000120565b600093810190920192909252949350505050565b6000806000606084860312156200016957600080fd5b83516001600160401b03808211156200018157600080fd5b6200018f87838801620000a4565b94506020860151915080821115620001a657600080fd5b50620001b586828701620000a4565b604086015190935090506001600160a01b0381168114620001d557600080fd5b809150509250925092565b600181811c90821680620001f557607f821691505b6020821081036200021657634e487b7160e01b600052602260045260246000fd5b50919050565b601f8211156200026a57600081815260208120601f850160051c81016020861015620002455750805b601f850160051c820191505b81811015620002665782815560010162000251565b5050505b505050565b81516001600160401b038111156200028b576200028b6200008e565b620002a3816200029c8454620001e0565b846200021c565b602080601f831160018114620002db5760008415620002c25750858301515b600019600386901b1c1916600185901b17855562000266565b600085815260208120601f198616915b828110156200030c57888601518255948401946001909101908401620002eb565b50858210156200032b5787850151600019600388901b60f8161c191681555b5050505050600190811b01905550565b610ac4806200034b6000396000f3fe608060405234801561001057600080fd5b50600436106101005760003560e01c8063825337bb11610097578063d05032ad11610066578063d05032ad14610224578063dd62ed3e14610237578063f2fde38b14610270578063fca3b5aa1461028357600080fd5b8063825337bb146101e35780638da5cb5b146101f657806395d89b4114610209578063a9059cbb1461021157600080fd5b806323b872dd116100d357806323b872dd14610183578063313ce5671461019657806340c10f19146101a557806370a08231146101ba57600080fd5b806306fdde03146101055780630754617214610123578063095ea7b31461014e57806318160ddd14610171575b600080fd5b61010d610296565b60405161011a919061090e565b60405180910390f35b600654610136906001600160a01b031681565b6040516001600160a01b03909116815260200161011a565b61016161015c366004610978565b610328565b604051901515815260200161011a565b6002545b60405190815260200161011a565b6101616101913660046109a2565b610342565b6040516012815260200161011a565b6101b86101b3366004610978565b610366565b005b6101756101c83660046109de565b6001600160a01b031660009081526020819052604090205490565b6101b86101f13660046109de565b6103d6565b600554610136906001600160a01b031681565b61010d610458565b61016161021f366004610978565b610467565b600754610136906001600160a01b031681565b610175610245366004610a00565b6001600160a01b03918216600090815260016020908152604080832093909416825291909152205490565b6101b861027e3660046109de565b610475565b6101b86102913660046109de565b610522565b6060600380546102a590610a33565b80601f01602080910402602001604051908101604052809291908181526020018280546102d190610a33565b801561031e5780601f106102f35761010080835404028352916020019161031e565b820191906000526020600020905b81548152906001019060200180831161030157829003601f168201915b5050505050905090565b6000336103368185856105e9565b60019150505b92915050565b6000336103508582856105fb565b61035b85858561067a565b506001949350505050565b6006546001600160a01b031633148061038957506007546001600160a01b031633145b6103c85760405162461bcd60e51b815260206004820152600b60248201526a27b7363c9036b4b73a32b960a91b60448201526064015b60405180910390fd5b6103d282826106d9565b5050565b6006546001600160a01b03163314806103f957506005546001600160a01b031633145b6104365760405162461bcd60e51b815260206004820152600e60248201526d139bdd08185d5d1a1bdc9a5e995960921b60448201526064016103bf565b600780546001600160a01b0319166001600160a01b0392909216919091179055565b6060600480546102a590610a33565b60003361033681858561067a565b6005546001600160a01b031633146104bb5760405162461bcd60e51b81526020600482015260096024820152682737ba1037bbb732b960b91b60448201526064016103bf565b6001600160a01b0381166105005760405162461bcd60e51b815260206004820152600c60248201526b5a65726f206164647265737360a01b60448201526064016103bf565b600580546001600160a01b0319166001600160a01b0392909216919091179055565b6006546001600160a01b031633148061054557506005546001600160a01b031633145b6105825760405162461bcd60e51b815260206004820152600e60248201526d139bdd08185d5d1a1bdc9a5e995960921b60448201526064016103bf565b6001600160a01b0381166105c75760405162461bcd60e51b815260206004820152600c60248201526b5a65726f206164647265737360a01b60448201526064016103bf565b600680546001600160a01b0319166001600160a01b0392909216919091179055565b6105f6838383600161070f565b505050565b6001600160a01b03838116600090815260016020908152604080832093861683529290522054600019811015610674578181101561066557604051637dc7a0d960e11b81526001600160a01b038416600482015260248101829052604481018390526064016103bf565b6106748484848403600061070f565b50505050565b6001600160a01b0383166106a457604051634b637e8f60e11b8152600060048201526024016103bf565b6001600160a01b0382166106ce5760405163ec442f0560e01b8152600060048201526024016103bf565b6105f68383836107e4565b6001600160a01b0382166107035760405163ec442f0560e01b8152600060048201526024016103bf565b6103d2600083836107e4565b6001600160a01b0384166107395760405163e602df0560e01b8152600060048201526024016103bf565b6001600160a01b03831661076357604051634a1406b160e11b8152600060048201526024016103bf565b6001600160a01b038085166000908152600160209081526040808320938716835292905220829055801561067457826001600160a01b0316846001600160a01b03167f8c5be1e5ebec7d5bd14f71427d1e84f3dd0314c0f7b2291e5b200ac8c7c3b925846040516107d691815260200190565b60405180910390a350505050565b6001600160a01b03831661080f5780600260008282546108049190610a6d565b909155506108819050565b6001600160a01b038316600090815260208190526040902054818110156108625760405163391434e360e21b81526001600160a01b038516600482015260248101829052604481018390526064016103bf565b6001600160a01b03841660009081526020819052604090209082900390555b6001600160a01b03821661089d576002805482900390556108bc565b6001600160a01b03821660009081526020819052604090208054820190555b816001600160a01b0316836001600160a01b03167fddf252ad1be2c89b69c2b068fc378daa952ba7f163c4a11628f55a4df523b3ef8360405161090191815260200190565b60405180910390a3505050565b600060208083528351808285015260005b8181101561093b5785810183015185820160400152820161091f565b506000604082860101526040601f19601f8301168501019250505092915050565b80356001600160a01b038116811461097357600080fd5b919050565b6000806040838503121561098b57600080fd5b6109948361095c565b946020939093013593505050565b6000806000606084860312156109b757600080fd5b6109c08461095c565b92506109ce6020850161095c565b9150604084013590509250925092565b6000602082840312156109f057600080fd5b6109f98261095c565b9392505050565b60008060408385031215610a1357600080fd5b610a1c8361095c565b9150610a2a6020840161095c565b90509250929050565b600181811c90821680610a4757607f821691505b602082108103610a6757634e487b7160e01b600052602260045260246000fd5b50919050565b8082018082111561033c57634e487b7160e01b600052601160045260246000fdfea26469706673582212202412e68064db630527a581fea0a818d8991896d723fd3e8d2bd46616fd2cb09564736f6c63430008140033",
  "linkReferences": {},
  "deployedLinkReferences": {}
}