{
  "_format": "hh-sol-artifact-1",
  "contractName": "SprawlDEX",
  "sourceName": "contracts/SprawlDEX.sol",
  "abi": [
    {
      "inputs": [
        {
          "internalType": "address",
          "name": "token",
          "type": "address"
        }
      ],
      "name": "SafeERC20FailedOperation",
      "type": "error"
    },
    {
      "anonymous": false,
      "inputs": [
        {
          "indexed": true,
          "internalType": "address",
          "name": "provider",
          "type": "address"
        },
        {
          "indexed": true,
          "internalType": "bytes32",
          "name": "poolId",
          "type": "bytes32"
        },
        {
          "indexed": false,
          "internalType": "uint256",
          "name": "amountA",
          "type": "uint256"
        },
        {
          "indexed": false,
          "internalType": "uint256",
          "name": "amountB",
          "type": "uint256"
        },
        {
          "indexed": false,
          "internalType": "uint256",
          "name": "shares",
          "type": "uint256"
        }
      ],
      "name": "LiquidityAdded",
      "type": "event"
    },
    {
      "anonymous": false,
      "inputs": [
        {
          "indexed": true,
          "internalType": "address",
          "name": "provider",
          "type": "address"
        },
        {
          "indexed": true,
          "internalType": "bytes32",
          "name": "poolId",
          "type": "bytes32"
        },
        {
          "indexed": false,
          "internalType": "uint256",
          "name": "amountA",
          "type": "uint256"
        },
        {
          "indexed": false,
          "internalType": "uint256",
          "name": "amountB",
          "type": "uint256"
        },
        {
          "indexed": false,
          "internalType": "uint256",
          "name": "shares",
          "type": "uint256"
        }
      ],
      "name": "LiquidityRemoved",
      "type": "event"
    },
    {
      "anonymous": false,
      "inputs": [
        {
          "indexed": true,
          "internalType": "bytes32",
          "name": "poolId",
          "type": "bytes32"
        },
        {
          "indexed": true,
          "internalType": "address",
          "name": "tokenA",
          "type": "address"
        },
        {
          "indexed": true,
          "internalType": "address",
          "name": "tokenB",
          "type": "address"
        }
      ],
      "name": "PoolCreated",
      "type": "event"
    },
    {
      "anonymous": false,
      "inputs": [
        {
          "indexed": true,
          "internalType": "address",
          "name": "trader",
          "type": "address"
        },
        {
          "indexed": false,
          "internalType": "address",
          "name": "tokenIn",
          "type": "address"
        },
        {
          "indexed": false,
          "internalType": "address",
          "name": "tokenOut",
          "type": "address"
        },
        {
          "indexed": false,
          "internalType": "uint256",
          "name": "amountIn",
          "type": "uint256"
        },
        {
          "indexed": false,
          "internalType": "uint256",
          "name": "amountOut",
          "type": "uint256"
        },
        {
          "indexed": false,
          "internalType": "uint256",
          "name": "priceAfter",
          "type": "uint256"
        },
        {
          "indexed": false,
          "internalType": "uint256",
          "name": "fee",
          "type": "uint256"
        }
      ],
      "name": "Swap",
      "type": "event"
    },
    {
      "inputs": [
        {
          "internalType": "address",
          "name": "tokenA",
          "type": "address"
        },
        {
          "internalType": "address",
          "name": "tokenB",
          "type": "address"
        },
        {
          "internalType": "uint256",
          "name": "amountA",
          "type": "uint256"
        },
        {
          "internalType": "uint256",
          "name": "amountB",
          "type": "uint256"
        }
      ],
      "name": "addLiquidity",
      "outputs": [],
      "stateMutability": "nonpayable",
      "type": "function"
    },
    {
      "inputs": [
        {
          "internalType": "address",
          "name": "tokenA",
          "type": "address"
        },
        {
          "internalType": "address",
          "name": "tokenB",
          "type": "address"
        },
        {
          "internalType": "uint256",
          "name": "amountA",
          "type": "uint256"
        },
        {
          "internalType": "uint256",
          "name": "amountB",
          "type": "uint256"
        },
        {
          "internalType": "uint256",
          "name": "feeNum",
          "type": "uint256"
        },
        {
          "internalType": "uint256",
          "name": "feeDenom",
          "type": "uint256"
        }
      ],
      "name": "createPool",
      "outputs": [
        {
          "internalType": "bytes32",
          "name": "poolId",
          "type": "bytes32"
        }
      ],
      "stateMutability": "nonpayable",
      "type": "function"
    },
    {
      "inputs": [
        {
          "internalType": "address",
          "name": "tokenIn",
          "type": "address"
        },
        {
          "internalType": "address",
          "name": "tokenOut",
          "type": "address"
        },
        {
          "internalType": "uint256",
          "name": "amountIn",
          "type": "uint256"
        }
      ],
      "name": "getAmountOut",
      "outputs": [
        {
          "internalType": "uint256",
          "name": "",
          "type": "uint256"
        }
      ],
      "stateMutability": "view",
      "type": "function"
    },
    {
      "inputs": [
        {
          "internalType": "address",
          "name": "tokenA",
          "type": "address"
        },
        {
          "internalType": "address",
          "name": "tokenB",
          "type": "address"
        }
      ],
      "name": "getPoolId",
      "outputs": [
        {
          "internalType": "bytes32",
          "name": "",
          "type": "bytes32"
        }
      ],
      "stateMutability": "pure",
      "type": "function"
    },
    {
      "inputs": [
        {
          "internalType": "bytes32",
          "name": "poolId",
          "type": "bytes32"
        }
      ],
      "name": "getPoolInfo",
      "outputs": [
        {
          "components": [
            {
              "internalType": "address",
              "name": "tokenA",
              "type": "address"
            },
            {
              "internalType": "address",
              "name": "tokenB",
              "type": "address"
            },
            {
              "internalType": "uint256",
              "name": "reserveA",
              "type": "uint256"
            },
            {
              "internalType": "uint256",
              "name": "reserveB",
              "type": "uint256"
            },
            {
              "internalType": "uint256",
              "name": "feeNumerator",
              "type": "uint256"
            },
            {
              "internalType": "uint256",
              "name": "feeDenominator",
              "type": "uint256"
            },
            {
              "internalType": "uint256",
              "name": "totalSwaps",
              "type": "uint256"
            },
            {
              "internalType": "uint256",
              "name": "totalLpShares",
              "type": "uint256"
            }
          ],
          "internalType": "struct SprawlDEX.Pool",
          "name": "",
          "type": "tuple"
        }
      ],
      "stateMutability": "view",
      "type": "function"
    },
    {
      "inputs": [
        {
          "internalType": "address",
          "name": "tokenA",
          "type": "address"
        },
        {
          "internalType": "address",
          "name": "tokenB",
          "type": "address"
        }
      ],
      "name": "getPrice",
      "outputs": [
        {
          "internalType": "uint256",
          "name": "",
          "type": "uint256"
        }
      ],
      "stateMutability": "view",
      "type": "function"
    },
    {
      "inputs": [
        {
          "internalType": "bytes32",
          "name": "",
          "type": "bytes32"
        },
        {
          "internalType": "address",
          "name": "",
          "type": "address"
        }
      ],
      "name": "lpShares",
      "outputs": [
        {
          "internalType": "uint256",
          "name": "",
          "type": "uint256"
        }
      ],
      "stateMutability": "view",
      "type": "function"
    },
    {
      "inputs": [
        {
          "internalType": "bytes32",
          "name": "",
          "type": "bytes32"
        }
      ],
      "name": "pools",
      "outputs": [
        {
          "internalType": "address",
          "name": "tokenA",
          "type": "address"
        },
        {
          "internalType": "address",
          "name": "tokenB",
          "type": "address"
        },
        {
          "internalType": "uint256",
          "name": "reserveA",
          "type": "uint256"
        },
        {
          "internalType": "uint256",
          "name": "reserveB",
          "type": "uint256"
        },
        {
          "internalType": "uint256",
          "name": "feeNumerator",
          "type": "uint256"
        },
        {
          "internalType": "uint256",
          "name": "feeDenominator",
          "type": "uint256"
        },
        {
          "internalType": "uint256",
          "name": "totalSwaps",
          "type": "uint256"
        },
        {
          "internalType": "uint256",
          "name": "totalLpShares",
          "type": "uint256"
        }
      ],
      "stateMutability": "view",
      "type": "function"
    },
    {
      "inputs": [
        {
          "internalType": "address",
          "name": "tokenA",
          "type": "address"
        },
        {
          "internalType": "address",
          "name": "tokenB",
          "type": "address"
        },
        {
          "internalType": "uint256",
          "name": "shares",
          "type": "uint256"
        }
      ],
      "name": "removeLiquidity",
      "outputs": [],
      "stateMutability": "nonpayable",
      "type": "function"
    },
    {
      "inputs": [
        {
          "internalType": "address",
          "name": "tokenIn",
          "type": "address"
        },
        {
          "internalType": "address",
          "name": "tokenOut",
          "type": "address"
        },
        {
          "internalType": "uint256",
          "name": "amountIn",
          "type": "uint256"
        },
        {
          "internalType": "uint256",
          "name": "amountOutMin",
          "type": "uint256"
        }
      ],
      "name": "swap",
      "outputs": [
        {
          "internalType": "uint256",
          "name": "amountOut",
          "type": "uint256"
        }
      ],
      "stateMutability": "nonpayable",
      "type": "function"
    }
  ],
  "bytecode": "0x608060405234801561001057600080fd5b506111bb806100206000396000f3fe608060405234801561001057600080fd5b506004361061009e5760003560e01c8063b5217bb411610066578063b5217bb41461019e578063cf6c62ea14610242578063d752fab214610257578063e48b39f21461026a578063fe0291561461027d57600080fd5b806309f2c019146100a35780632ef61c211461012c5780634aa066521461014d578063aad8d92e14610160578063ac41865a1461018b575b600080fd5b6100b66100b1366004610f71565b610290565b604051610123919060006101008201905060018060a01b038084511683528060208501511660208401525060408301516040830152606083015160608301526080830151608083015260a083015160a083015260c083015160c083015260e083015160e083015292915050565b60405180910390f35b61013f61013a366004610fa6565b610362565b604051908152602001610123565b61013f61015b366004610fd9565b6103d9565b61013f61016e366004611015565b600160209081526000928352604080842090915290825290205481565b61013f610199366004610fa6565b6104a7565b6101fc6101ac366004610f71565b600060208190529081526040902080546001820154600283015460038401546004850154600586015460068701546007909701546001600160a01b03968716979590961695939492939192909188565b604080516001600160a01b03998a168152989097166020890152958701949094526060860192909252608085015260a084015260c083015260e082015261010001610123565b610255610250366004611038565b610556565b005b610255610265366004610fd9565b6106e4565b61013f61027836600461107a565b610899565b61013f61028b366004611038565b610b4b565b6102ea60405180610100016040528060006001600160a01b0316815260200160006001600160a01b031681526020016000815260200160008152602001600081526020016000815260200160008152602001600081525090565b506000908152602081815260409182902082516101008101845281546001600160a01b039081168252600183015416928101929092526002810154928201929092526003820154606082015260048201546080820152600582015460a0820152600682015460c082015260079091015460e082015290565b6000806000836001600160a01b0316856001600160a01b03161061038757838561038a565b84845b6040516bffffffffffffffffffffffff19606084811b8216602084015283901b166034820152919350915060480160405160208183030381529060405280519060200120925050505b92915050565b6000806103e68585610362565b600081815260208190526040812060058101546004820154939450909261040d90876110e5565b61041791906110fc565b90506000610425828761111e565b83549091506000906001600160a01b038a811691161461044957836003015461044f565b83600201545b84549091506000906001600160a01b038b8116911614610473578460020154610479565b84600301545b90506104858383611131565b61048f82856110e5565b61049991906110fc565b9a9950505050505050505050565b6000806104b48484610362565b60008181526020819052604090208054919250906001600160a01b03166104f65760405162461bcd60e51b81526004016104ed90611144565b60405180910390fd5b805460009081906001600160a01b0388811691161461051e5782600301548360020154610529565b826002015483600301545b90925090508161054182670de0b6b3a76400006110e5565b61054b91906110fc565b979650505050505050565b60006105628585610362565b60008181526020819052604090208054919250906001600160a01b031661059b5760405162461bcd60e51b81526004016104ed90611144565b805460009081906001600160a01b038981169116146105bb5784866105be565b85855b91509150600083600201548460070154846105d991906110e5565b6105e391906110fc565b84549091506105fd906001600160a01b0316333086610e23565b6001840154610617906001600160a01b0316333085610e23565b8284600201600082825461062b9190611131565b92505081905550818460030160008282546106469190611131565b92505081905550808460070160008282546106619190611131565b909155505060008581526001602090815260408083203384529091528120805483929061068f908490611131565b90915550506040805184815260208101849052908101829052859033907fdfdd9dbcc558b79525f53ba7faeaa725e94f45e8795c3152c0e8353bb73025b79060600160405180910390a3505050505050505050565b60006106f08484610362565b6000818152602081815260408083206001835281842033855290925290912054919250908311156107595760405162461bcd60e51b8152602060048201526013602482015272496e73756666696369656e742073686172657360681b60448201526064016104ed565b6000816007015482600201548561077091906110e5565b61077a91906110fc565b90506000826007015483600301548661079391906110e5565b61079d91906110fc565b9050818360020160008282546107b3919061111e565b92505081905550808360030160008282546107ce919061111e565b92505081905550848360070160008282546107e9919061111e565b909155505060008481526001602090815260408083203384529091528120805487929061081790849061111e565b90915550508254610832906001600160a01b03163384610e5f565b600183015461084b906001600160a01b03163383610e5f565b6040805183815260208101839052908101869052849033907fdcd2a7a2ca607e210edca7c07bebf4592a7fc452d24305ca55ecdff503421fb09060600160405180910390a350505050505050565b60006108a58787610362565b6000818152602081905260409020549091506001600160a01b0316156108fb5760405162461bcd60e51b815260206004820152600b60248201526a506f6f6c2065786973747360a81b60448201526064016104ed565b60008511801561090b5750600084115b6109465760405162461bcd60e51b815260206004820152600c60248201526b5a65726f20616d6f756e747360a01b60448201526064016104ed565b600080876001600160a01b0316896001600160a01b03161061096957878961096c565b88885b91509150600080896001600160a01b03168b6001600160a01b031610610993578789610996565b88885b90925090506109b06001600160a01b038516333085610e23565b6109c56001600160a01b038416333084610e23565b604051806101000160405280856001600160a01b03168152602001846001600160a01b03168152602001838152602001828152602001888152602001878152602001600081526020016103e881525060008087815260200190815260200160002060008201518160000160006101000a8154816001600160a01b0302191690836001600160a01b0316021790555060208201518160010160006101000a8154816001600160a01b0302191690836001600160a01b0316021790555060408201518160020155606082015181600301556080820151816004015560a0820151816005015560c0820151816006015560e082015181600701559050506103e8600160008781526020019081526020016000206000336001600160a01b03166001600160a01b0316815260200190815260200160002081905550826001600160a01b0316846001600160a01b0316867fc0c143d18100b0ec0b6c08cc52247dd860ffd3fc2af30733326e5f980c19635a60405160405180910390a4505050509695505050505050565b600080610b588686610362565b60008181526020819052604090208054919250906001600160a01b0316610b915760405162461bcd60e51b81526004016104ed90611144565b60008160050154826004015487610ba891906110e5565b610bb291906110fc565b90506000610bc0828861111e565b83549091506000906001600160a01b038b8116911614610be4578360030154610bea565b83600201545b84549091506000906001600160a01b038c8116911614610c0e578460020154610c14565b84600301545b9050610c208383611131565b610c2a82856110e5565b610c3491906110fc565b965087871015610c7a5760405162461bcd60e51b815260206004820152601160248201527014db1a5c1c1859d948195e18d959591959607a1b60448201526064016104ed565b808710610cc25760405162461bcd60e51b8152602060048201526016602482015275496e73756666696369656e74206c697175696469747960501b60448201526064016104ed565b610cd76001600160a01b038c1633308c610e23565b610ceb6001600160a01b038b163389610e5f565b84546001600160a01b03908116908c1603610d3a5788856002016000828254610d149190611131565b9250508190555086856003016000828254610d2f919061111e565b90915550610d6f9050565b88856003016000828254610d4e9190611131565b9250508190555086856002016000828254610d69919061111e565b90915550505b600685018054906000610d818361116c565b9190505550600085600201548660030154670de0b6b3a7640000610da591906110e5565b610daf91906110fc565b604080516001600160a01b038f811682528e1660208201529081018c9052606081018a90526080810182905260a0810187905290915033907f0874b2d545cb271cdbda4e093020c452328b24af12382ed62c4d00f5c26709db9060c00160405180910390a250505050505050949350505050565b610e31848484846001610e99565b610e5957604051635274afe760e01b81526001600160a01b03851660048201526024016104ed565b50505050565b610e6c8383836001610f0b565b610e9457604051635274afe760e01b81526001600160a01b03841660048201526024016104ed565b505050565b6040516323b872dd60e01b60008181526001600160a01b038781166004528616602452604485905291602083606481808c5af192506001600051148316610ef9578383151615610eec573d6000823e3d81fd5b6000883b113d1516831692505b60405250600060605295945050505050565b60405163a9059cbb60e01b60008181526001600160a01b038616600452602485905291602083604481808b5af192506001600051148316610f65578383151615610f58573d6000823e3d81fd5b6000873b113d1516831692505b60405250949350505050565b600060208284031215610f8357600080fd5b5035919050565b80356001600160a01b0381168114610fa157600080fd5b919050565b60008060408385031215610fb957600080fd5b610fc283610f8a565b9150610fd060208401610f8a565b90509250929050565b600080600060608486031215610fee57600080fd5b610ff784610f8a565b925061100560208501610f8a565b9150604084013590509250925092565b6000806040838503121561102857600080fd5b82359150610fd060208401610f8a565b6000806000806080858703121561104e57600080fd5b61105785610f8a565b935061106560208601610f8a565b93969395505050506040820135916060013590565b60008060008060008060c0878903121561109357600080fd5b61109c87610f8a565b95506110aa60208801610f8a565b95989597505050506040840135936060810135936080820135935060a0909101359150565b634e487b7160e01b600052601160045260246000fd5b80820281158282048414176103d3576103d36110cf565b60008261111957634e487b7160e01b600052601260045260246000fd5b500490565b818103818111156103d3576103d36110cf565b808201808211156103d3576103d36110cf565b6020808252600e908201526d141bdbdb081b9bdd08199bdd5b9960921b604082015260600190565b60006001820161117e5761117e6110cf565b506001019056fea26469706673582212208a2d6cfbf4ed0e0e340165c8b74570b22c44a1cefca2687c7e21fd2c9b1c46df64736f6c63430008140033",
  "linkReferences": {},
  "deployedLinkReferences": {}
}