{
  "_format": "hh-sol-artifact-1",
  "contractName": "SprawlToken",
  "sourceName": "contracts/SprawlToken.sol",
  "abi": [
    {
      "inputs": [
        {
          "internalType": "string",
          "name": "name_",
          "type": "string"
        },
        {
          "internalType": "string",
          "name": "symbol_",
          "type": "string"
        },
        {
          "internalType": "address",
          "name": "minter_",
          "type": "address"
        }
      ],
      "stateMutability": "nonpayable",
      "type": "constructor"
    },
    {
      "inputs": [
        {
          "internalType": "address",
          "name": "spender",
          "type": "address"
        },
        {
          "internalType": "uint256",
          "name": "allowance",
          "type": "uint256"
        },
        {
          "internalType": "uint256",
          "name": "needed",
          "type": "uint256"
        }
      ],
      "name": "ERC20InsufficientAllowance",
      "type": "error"
    },
    {
      "inputs": [
        {
          "internalType": "address",
          "name": "sender",
          "type": "address"
        },
        {
          "internalType": "uint256",
          "name": "balance",
          "type": "uint256"
        },
        {
          "internalType": "uint256",
          "name": "needed",
          "type": "uint256"
        }
      ],
      "name": "ERC20InsufficientBalance",
      "type": "error"
    },
    {
      "inputs": [
        {
          "internalType": "address",
          "name": "approver",
          "type": "address"
        }
      ],
      "name": "ERC20InvalidApprover",
      "type": "error"
    },
    {
      "inputs": [
        {
          "internalType": "address",
          "name": "receiver",
          "type": "address"
        }
      ],
      "name": "ERC20InvalidReceiver",
      "type": "error"
    },
    {
      "inputs": [
        {
          "internalType": "address",
          "name": "sender",
          "type": "address"
        }
      ],
      "name": "ERC20InvalidSender",
      "type": "error"
    },
    {
      "inputs": [
        {
          "internalType": "address",
          "name": "spender",
          "type": "address"
        }
      ],
      "name": "ERC20InvalidSpender",
      "type": "error"
    },
    {
      "anonymous": false,
      "inputs": [
        {
          "indexed": true,
          "internalType": "address",
          "name": "owner",
          "type": "address"
        },
        {
          "indexed": true,
          "internalType": "address",
          "name": "spender",
          "type": "address"
        },
        {
          "indexed": false,
          "internalType": "uint256",
          "name": "value",
          "type": "uint256"
        }
      ],
      "name": "Approval",
      "type": "event"
    },
    {
      "anonymous": false,
      "inputs": [
        {
          "indexed": true,
          "internalType": "address",
          "name": "from",
          "type": "address"
        },
        {
          "indexed": true,
          "internalType": "address",
          "name": "to",
          "type": "address"
        },
        {
          "indexed": false,
          "internalType": "uint256",
          "name": "value",
          "type": "uint256"
        }
      ],
      "name": "Transfer",
      "type": "event"
    },
    {
      "inputs": [
        {
          "internalType": "address",
          "name": "owner",
          "type": "address"
        },
        {
          "internalType": "address",
          "name": "spender",
          "type": "address"
        }
      ],
      "name": "allowance",
      "outputs": [
        {
          "internalType": "uint256",
          "name": "",
          "type": "uint256"
        }
      ],
      "stateMutability": "view",
      "type": "function"
    },
    {
      "inputs": [
        {
          "internalType": "address",
          "name": "spender",
          "type": "address"
        },
        {
          "internalType": "uint256",
          "name": "value",
          "type": "uint256"
        }
      ],
      "name": "approve",
      "outputs": [
        {
          "internalType": "bool",
          "name": "",
          "type": "bool"
        }
      ],
      "stateMutability": "nonpayable",
      "type": "function"
    },
    {
      "inputs": [
        {
          "internalType": "address",
          "name": "account",
          "type": "address"
        }
      ],
      "name": "balanceOf",
      "outputs": [
        {
          "internalType": "uint256",
          "name": "",
          "type": "uint256"
        }
      ],
      "stateMutability": "view",
      "type": "function"
    },
    {
      "inputs": [],
      "name": "decimals",
      "outputs": [
        {
          "internalType": "uint8",
          "name": "",
          "type": "uint8"
        }
      ],
      "stateMutability": "view",
      "type": "function"
    },
    {
      "inputs": [
        {
          "internalType": "address",
          "name": "to",
          "type": "address"
        },
        {
          "internalType": "uint256",
          "name": "amount",
          "type": "uint256"
        }
      ],
      "name": "mint",
      "outputs": [],
      "stateMutability": "nonpayable",
      "type": "function"
    },
    {
      "inputs": [],
      "name": "minter",
      "outputs": [
        {
          "internalType": "address",
          "name": "",
          "type": "address"
        }
      ],
      "stateMutability": "view",
      "type": "function"
    },
    {
      "inputs": [],
      "name": "name",
      "outputs": [
        {
          "internalType": "string",
          "name": "",
          "type": "string"
        }
      ],
      "stateMutability": "view",
      "type": "function"
    },
    {
      "inputs": [],
      "name": "secondaryMinter",
      "outputs": [
        {
          "internalType": "address",
          "name": "",
          "type": "address"
        }
      ],
      "stateMutability": "view",
      "type": "function"
    },
    {
      "inputs": [
        {
          "internalType": "address",
          "name": "newMinter",
          "type": "address"
        }
      ],
      "name": "setMinter",
      "outputs": [],
      "stateMutability": "nonpayable",
      "type": "function"
    },
    {
      "inputs": [
        {
          "internalType": "address",
          "name": "_secondaryMinter",
          "type": "address"
        }
      ],
      "name": "setSecondaryMinter",
      "outputs": [],
      "stateMutability": "nonpayable",
      "type": "function"
    },
    {
      "inputs": [],
      "name": "symbol",
      "outputs": [
        {
          "internalType": "string",
          "name": "",
          "type": "string"
        }
      ],
      "stateMutability": "view",
      "type": "function"
    },
    {
      "inputs": [],
      "name": "totalSupply",
      "outputs": [
        {
          "internalType": "uint256",
          "name": "",
          "type": "uint256"
        }
      ],
      "stateMutability": "view",
      "type": "function"
    },
    {
      "inputs": [
        {
          "internalType": "address",
          "name": "to",
          "type": "address"
        },
        {
          "internalType": "uint256",
          "name": "value",
          "type": "uint256"
        }
      ],
      "name": "transfer",
      "outputs": [
        {
          "internalType": "bool",
          "name": "",
          "type": "bool"
        }
      ],
      "stateMutability": "nonpayable",
      "type": "function"
    },
    {
      "inputs": [
        {
          "internalType": "address",
          "name": "from",
          "type": "address"
        },
        {
          "internalType": "address",
          "name": "to",
          "type": "address"
        },
        {
          "internalType": "uint256",
          "name": "value",
          "type": "uint256"
        }
      ],
      "name": "transferFrom",
      "outputs": [
        {
          "internalType": "bool",
          "name": "",
          "type": "bool"
        }
      ],
      "stateMutability": "nonpayable",
      "type": "function"
    }
  ],
  "bytecode": "0x60806040523480156200001157600080fd5b5060405162000cf838038062000cf8833981016040819052620000349162000145565b8282600362000044838262000261565b50600462000053828262000261565b5050600580546001600160a01b0319166001600160a01b039390931692909217909155506200032d915050565b634e487b7160e01b600052604160045260246000fd5b600082601f830112620000a857600080fd5b81516001600160401b0380821115620000c557620000c562000080565b604051601f8301601f19908116603f01168101908282118183101715620000f057620000f062000080565b816040528381526020925086838588010111156200010d57600080fd5b600091505b8382101562000131578582018301518183018401529082019062000112565b600093810190920192909252949350505050565b6000806000606084860312156200015b57600080fd5b83516001600160401b03808211156200017357600080fd5b620001818783880162000096565b945060208601519150808211156200019857600080fd5b50620001a78682870162000096565b604086015190935090506001600160a01b0381168114620001c757600080fd5b809150509250925092565b600181811c90821680620001e757607f821691505b6020821081036200020857634e487b7160e01b600052602260045260246000fd5b50919050565b601f8211156200025c57600081815260208120601f850160051c81016020861015620002375750805b601f850160051c820191505b81811015620002585782815560010162000243565b5050505b505050565b81516001600160401b038111156200027d576200027d62000080565b62000295816200028e8454620001d2565b846200020e565b602080601f831160018114620002cd5760008415620002b45750858301515b600019600386901b1c1916600185901b17855562000258565b600085815260208120601f198616915b82811015620002fe57888601518255948401946001909101908401620002dd565b50858210156200031d5787850151600019600388901b60f8161c191681555b5050505050600190811b01905550565b6109bb806200033d6000396000f3fe608060405234801561001057600080fd5b50600436106100ea5760003560e01c806370a082311161008c578063a9059cbb11610066578063a9059cbb146101e8578063d05032ad146101fb578063dd62ed3e1461020e578063fca3b5aa1461024757600080fd5b806370a08231146101a4578063825337bb146101cd57806395d89b41146101e057600080fd5b806318160ddd116100c857806318160ddd1461015b57806323b872dd1461016d578063313ce5671461018057806340c10f191461018f57600080fd5b806306fdde03146100ef578063075461721461010d578063095ea7b314610138575b600080fd5b6100f761025a565b6040516101049190610805565b60405180910390f35b600554610120906001600160a01b031681565b6040516001600160a01b039091168152602001610104565b61014b61014636600461086f565b6102ec565b6040519015158152602001610104565b6002545b604051908152602001610104565b61014b61017b366004610899565b610306565b60405160128152602001610104565b6101a261019d36600461086f565b61032a565b005b61015f6101b23660046108d5565b6001600160a01b031660009081526020819052604090205490565b6101a26101db3660046108d5565b61039a565b6100f761040c565b61014b6101f636600461086f565b61041b565b600654610120906001600160a01b031681565b61015f61021c3660046108f7565b6001600160a01b03918216600090815260016020908152604080832093909416825291909152205490565b6101a26102553660046108d5565b610429565b6060600380546102699061092a565b80601f01602080910402602001604051908101604052809291908181526020018280546102959061092a565b80156102e25780601f106102b7576101008083540402835291602001916102e2565b820191906000526020600020905b8154815290600101906020018083116102c557829003601f168201915b5050505050905090565b6000336102fa8185856104e0565b60019150505b92915050565b6000336103148582856104f2565b61031f858585610571565b506001949350505050565b6005546001600160a01b031633148061034d57506006546001600160a01b031633145b61038c5760405162461bcd60e51b815260206004820152600b60248201526a27b7363c9036b4b73a32b960a91b60448201526064015b60405180910390fd5b61039682826105d0565b5050565b6005546001600160a01b031633146103ea5760405162461bcd60e51b815260206004820152601360248201527227b7363c90383934b6b0b93c9036b4b73a32b960691b6044820152606401610383565b600680546001600160a01b0319166001600160a01b0392909216919091179055565b6060600480546102699061092a565b6000336102fa818585610571565b6005546001600160a01b031633146104795760405162461bcd60e51b815260206004820152601360248201527227b7363c90383934b6b0b93c9036b4b73a32b960691b6044820152606401610383565b6001600160a01b0381166104be5760405162461bcd60e51b815260206004820152600c60248201526b5a65726f206164647265737360a01b6044820152606401610383565b600580546001600160a01b0319166001600160a01b0392909216919091179055565b6104ed8383836001610606565b505050565b6001600160a01b0383811660009081526001602090815260408083209386168352929052205460001981101561056b578181101561055c57604051637dc7a0d960e11b81526001600160a01b03841660048201526024810182905260448101839052606401610383565b61056b84848484036000610606565b50505050565b6001600160a01b03831661059b57604051634b637e8f60e11b815260006004820152602401610383565b6001600160a01b0382166105c55760405163ec442f0560e01b815260006004820152602401610383565b6104ed8383836106db565b6001600160a01b0382166105fa5760405163ec442f0560e01b815260006004820152602401610383565b610396600083836106db565b6001600160a01b0384166106305760405163e602df0560e01b815260006004820152602401610383565b6001600160a01b03831661065a57604051634a1406b160e11b815260006004820152602401610383565b6001600160a01b038085166000908152600160209081526040808320938716835292905220829055801561056b57826001600160a01b0316846001600160a01b03167f8c5be1e5ebec7d5bd14f71427d1e84f3dd0314c0f7b2291e5b200ac8c7c3b925846040516106cd91815260200190565b60405180910390a350505050565b6001600160a01b0383166107065780600260008282546106fb9190610964565b909155506107789050565b6001600160a01b038316600090815260208190526040902054818110156107595760405163391434e360e21b81526001600160a01b03851660048201526024810182905260448101839052606401610383565b6001600160a01b03841660009081526020819052604090209082900390555b6001600160a01b038216610794576002805482900390556107b3565b6001600160a01b03821660009081526020819052604090208054820190555b816001600160a01b0316836001600160a01b03167fddf252ad1be2c89b69c2b068fc378daa952ba7f163c4a11628f55a4df523b3ef836040516107f891815260200190565b60405180910390a3505050565b600060208083528351808285015260005b8181101561083257858101830151858201604001528201610816565b506000604082860101526040601f19601f8301168501019250505092915050565b80356001600160a01b038116811461086a57600080fd5b919050565b6000806040838503121561088257600080fd5b61088b83610853565b946020939093013593505050565b6000806000606084860312156108ae57600080fd5b6108b784610853565b92506108c560208501610853565b9150604084013590509250925092565b6000602082840312156108e757600080fd5b6108f082610853565b9392505050565b6000806040838503121561090a57600080fd5b61091383610853565b915061092160208401610853565b90509250929050565b600181811c9082168061093e57607f821691505b60208210810361095e57634e487b7160e01b600052602260045260246000fd5b50919050565b8082018082111561030057634e487b7160e01b600052601160045260246000fdfea2646970667358221220d2c3508a5d72d25c5508bad49fa7eed70df19951e2876bebba26d05fa3afbba564736f6c63430008140033",
  "linkReferences": {},
  "deployedLinkReferences": {}
}